{
  "contractName": "PIXSMarket",
  "abi": [
    {
      "inputs": [
        {
          "internalType": "address[]",
          "name": "_owners",
          "type": "address[]"
        }
      ],
      "stateMutability": "nonpayable",
      "type": "constructor"
    },
    {
      "anonymous": false,
      "inputs": [
        {
          "indexed": true,
          "internalType": "address",
          "name": "owner",
          "type": "address"
        },
        {
          "indexed": true,
          "internalType": "address",
          "name": "approved",
          "type": "address"
        },
        {
          "indexed": true,
          "internalType": "uint256",
          "name": "tokenId",
          "type": "uint256"
        }
      ],
      "name": "Approval",
      "type": "event"
    },
    {
      "anonymous": false,
      "inputs": [
        {
          "indexed": true,
          "internalType": "address",
          "name": "owner",
          "type": "address"
        },
        {
          "indexed": true,
          "internalType": "address",
          "name": "operator",
          "type": "address"
        },
        {
          "indexed": false,
          "internalType": "bool",
          "name": "approved",
          "type": "bool"
        }
      ],
      "name": "ApprovalForAll",
      "type": "event"
    },
    {
      "anonymous": false,
      "inputs": [
        {
          "indexed": false,
          "internalType": "string",
          "name": "uri",
          "type": "string"
        }
      ],
      "name": "BaseTokenUriUpdated",
      "type": "event"
    },
    {
      "anonymous": false,
      "inputs": [
        {
          "indexed": true,
          "internalType": "uint256",
          "name": "tokenId",
          "type": "uint256"
        },
        {
          "indexed": true,
          "internalType": "address",
          "name": "offerer",
          "type": "address"
        },
        {
          "indexed": false,
          "internalType": "uint256",
          "name": "amount",
          "type": "uint256"
        }
      ],
      "name": "IsOffering",
      "type": "event"
    },
    {
      "anonymous": false,
      "inputs": [
        {
          "indexed": true,
          "internalType": "address",
          "name": "previousOwner",
          "type": "address"
        }
      ],
      "name": "OwnershipRenounced",
      "type": "event"
    },
    {
      "anonymous": false,
      "inputs": [
        {
          "indexed": true,
          "internalType": "address",
          "name": "previousOwner",
          "type": "address"
        },
        {
          "indexed": true,
          "internalType": "address",
          "name": "newOwner",
          "type": "address"
        }
      ],
      "name": "OwnershipTransferred",
      "type": "event"
    },
    {
      "anonymous": false,
      "inputs": [
        {
          "indexed": true,
          "internalType": "address",
          "name": "from",
          "type": "address"
        },
        {
          "indexed": true,
          "internalType": "address",
          "name": "to",
          "type": "address"
        },
        {
          "indexed": true,
          "internalType": "uint256",
          "name": "tokenId",
          "type": "uint256"
        }
      ],
      "name": "Transfer",
      "type": "event"
    },
    {
      "inputs": [
        {
          "internalType": "address",
          "name": "to",
          "type": "address"
        },
        {
          "internalType": "uint256",
          "name": "tokenId",
          "type": "uint256"
        }
      ],
      "name": "approve",
      "outputs": [],
      "stateMutability": "nonpayable",
      "type": "function"
    },
    {
      "inputs": [
        {
          "internalType": "address",
          "name": "owner",
          "type": "address"
        }
      ],
      "name": "balanceOf",
      "outputs": [
        {
          "internalType": "uint256",
          "name": "",
          "type": "uint256"
        }
      ],
      "stateMutability": "view",
      "type": "function"
    },
    {
      "inputs": [],
      "name": "baseTokenURI",
      "outputs": [
        {
          "internalType": "string",
          "name": "",
          "type": "string"
        }
      ],
      "stateMutability": "view",
      "type": "function"
    },
    {
      "inputs": [
        {
          "internalType": "uint256",
          "name": "tokenId",
          "type": "uint256"
        }
      ],
      "name": "getApproved",
      "outputs": [
        {
          "internalType": "address",
          "name": "",
          "type": "address"
        }
      ],
      "stateMutability": "view",
      "type": "function"
    },
    {
      "inputs": [
        {
          "internalType": "address",
          "name": "_newOwner",
          "type": "address"
        }
      ],
      "name": "getRelinquishmentToken",
      "outputs": [
        {
          "internalType": "bytes32",
          "name": "_rToken",
          "type": "bytes32"
        }
      ],
      "stateMutability": "view",
      "type": "function"
    },
    {
      "inputs": [
        {
          "internalType": "address",
          "name": "owner",
          "type": "address"
        },
        {
          "internalType": "address",
          "name": "operator",
          "type": "address"
        }
      ],
      "name": "isApprovedForAll",
      "outputs": [
        {
          "internalType": "bool",
          "name": "",
          "type": "bool"
        }
      ],
      "stateMutability": "view",
      "type": "function"
    },
    {
      "inputs": [
        {
          "internalType": "address",
          "name": "addr",
          "type": "address"
        }
      ],
      "name": "isOwner",
      "outputs": [
        {
          "internalType": "bool",
          "name": "isOwnerAddr",
          "type": "bool"
        }
      ],
      "stateMutability": "view",
      "type": "function"
    },
    {
      "inputs": [],
      "name": "name",
      "outputs": [
        {
          "internalType": "string",
          "name": "",
          "type": "string"
        }
      ],
      "stateMutability": "view",
      "type": "function"
    },
    {
      "inputs": [
        {
          "internalType": "uint256",
          "name": "tokenId",
          "type": "uint256"
        }
      ],
      "name": "ownerOf",
      "outputs": [
        {
          "internalType": "address",
          "name": "",
          "type": "address"
        }
      ],
      "stateMutability": "view",
      "type": "function"
    },
    {
      "inputs": [
        {
          "internalType": "address",
          "name": "_newOwner",
          "type": "address"
        }
      ],
      "name": "preTransferOwnership",
      "outputs": [
        {
          "internalType": "bytes32",
          "name": "_relinquishmentToken",
          "type": "bytes32"
        }
      ],
      "stateMutability": "nonpayable",
      "type": "function"
    },
    {
      "inputs": [
        {
          "internalType": "uint256",
          "name": "",
          "type": "uint256"
        },
        {
          "internalType": "address",
          "name": "",
          "type": "address"
        },
        {
          "internalType": "address",
          "name": "",
          "type": "address"
        }
      ],
      "name": "privateSalePrices",
      "outputs": [
        {
          "internalType": "uint256",
          "name": "",
          "type": "uint256"
        }
      ],
      "stateMutability": "view",
      "type": "function"
    },
    {
      "inputs": [
        {
          "internalType": "address",
          "name": "from",
          "type": "address"
        },
        {
          "internalType": "address",
          "name": "to",
          "type": "address"
        },
        {
          "internalType": "uint256",
          "name": "tokenId",
          "type": "uint256"
        }
      ],
      "name": "safeTransferFrom",
      "outputs": [],
      "stateMutability": "nonpayable",
      "type": "function"
    },
    {
      "inputs": [
        {
          "internalType": "address",
          "name": "from",
          "type": "address"
        },
        {
          "internalType": "address",
          "name": "to",
          "type": "address"
        },
        {
          "internalType": "uint256",
          "name": "tokenId",
          "type": "uint256"
        },
        {
          "internalType": "bytes",
          "name": "_data",
          "type": "bytes"
        }
      ],
      "name": "safeTransferFrom",
      "outputs": [],
      "stateMutability": "nonpayable",
      "type": "function"
    },
    {
      "inputs": [
        {
          "internalType": "uint256",
          "name": "",
          "type": "uint256"
        }
      ],
      "name": "salePrices",
      "outputs": [
        {
          "internalType": "uint256",
          "name": "",
          "type": "uint256"
        }
      ],
      "stateMutability": "view",
      "type": "function"
    },
    {
      "inputs": [
        {
          "internalType": "address",
          "name": "operator",
          "type": "address"
        },
        {
          "internalType": "bool",
          "name": "approved",
          "type": "bool"
        }
      ],
      "name": "setApprovalForAll",
      "outputs": [],
      "stateMutability": "nonpayable",
      "type": "function"
    },
    {
      "inputs": [
        {
          "internalType": "string",
          "name": "uri",
          "type": "string"
        }
      ],
      "name": "setBaseTokenURI",
      "outputs": [],
      "stateMutability": "nonpayable",
      "type": "function"
    },
    {
      "inputs": [
        {
          "internalType": "bytes4",
          "name": "interfaceId",
          "type": "bytes4"
        }
      ],
      "name": "supportsInterface",
      "outputs": [
        {
          "internalType": "bool",
          "name": "",
          "type": "bool"
        }
      ],
      "stateMutability": "view",
      "type": "function"
    },
    {
      "inputs": [],
      "name": "symbol",
      "outputs": [
        {
          "internalType": "string",
          "name": "",
          "type": "string"
        }
      ],
      "stateMutability": "view",
      "type": "function"
    },
    {
      "inputs": [
        {
          "internalType": "uint256",
          "name": "_tokenId",
          "type": "uint256"
        }
      ],
      "name": "tokenURI",
      "outputs": [
        {
          "internalType": "string",
          "name": "",
          "type": "string"
        }
      ],
      "stateMutability": "view",
      "type": "function"
    },
    {
      "inputs": [
        {
          "internalType": "address",
          "name": "from",
          "type": "address"
        },
        {
          "internalType": "address",
          "name": "to",
          "type": "address"
        },
        {
          "internalType": "uint256",
          "name": "tokenId",
          "type": "uint256"
        }
      ],
      "name": "transferFrom",
      "outputs": [],
      "stateMutability": "nonpayable",
      "type": "function"
    },
    {
      "inputs": [
        {
          "internalType": "bytes32",
          "name": "_relinquishmentToken",
          "type": "bytes32"
        },
        {
          "internalType": "address",
          "name": "_newOwner",
          "type": "address"
        }
      ],
      "name": "transferOwnership",
      "outputs": [],
      "stateMutability": "nonpayable",
      "type": "function"
    },
    {
      "inputs": [
        {
          "internalType": "uint256",
          "name": "_tokenId",
          "type": "uint256"
        },
        {
          "internalType": "uint256",
          "name": "_amount",
          "type": "uint256"
        }
      ],
      "name": "sell",
      "outputs": [],
      "stateMutability": "nonpayable",
      "type": "function"
    },
    {
      "inputs": [
        {
          "internalType": "uint256",
          "name": "_tokenId",
          "type": "uint256"
        },
        {
          "internalType": "uint256",
          "name": "_amount",
          "type": "uint256"
        },
        {
          "internalType": "address",
          "name": "_buyer",
          "type": "address"
        }
      ],
      "name": "privateSellTo",
      "outputs": [],
      "stateMutability": "nonpayable",
      "type": "function"
    },
    {
      "inputs": [
        {
          "internalType": "uint256",
          "name": "_tokenId",
          "type": "uint256"
        },
        {
          "internalType": "address",
          "name": "_optBuyer",
          "type": "address"
        }
      ],
      "name": "removeFromSale",
      "outputs": [],
      "stateMutability": "nonpayable",
      "type": "function"
    },
    {
      "inputs": [
        {
          "internalType": "uint256",
          "name": "_tokenId",
          "type": "uint256"
        },
        {
          "internalType": "address",
          "name": "_sender",
          "type": "address"
        }
      ],
      "name": "getTokenPrice",
      "outputs": [
        {
          "internalType": "uint256",
          "name": "tokenPrice",
          "type": "uint256"
        }
      ],
      "stateMutability": "view",
      "type": "function"
    },
    {
      "inputs": [
        {
          "internalType": "uint256",
          "name": "_tokenId",
          "type": "uint256"
        },
        {
          "internalType": "uint256",
          "name": "_amount",
          "type": "uint256"
        }
      ],
      "name": "makeOffer",
      "outputs": [],
      "stateMutability": "nonpayable",
      "type": "function"
    }
  ],
  "bytecode": "0x60806040523480156200001157600080fd5b506040516200231f3803806200231f8339810160408190526200003491620001d7565b604080518082018252600781526650697873616c6560c81b6020808301918252835180850190945260048452635049585360e01b908401528151849391620000809160009190620000bc565b50805162000096906001906020840190620000bc565b50508151620000ae915060069060208401906200014b565b5050600160095550620002fe565b828054620000ca90620002ab565b90600052602060002090601f016020900481019282620000ee576000855562000139565b82601f106200010957805160ff191683800117855562000139565b8280016001018555821562000139579182015b82811115620001395782518255916020019190600101906200011c565b5062000147929150620001a3565b5090565b82805482825590600052602060002090810192821562000139579160200282015b828111156200013957825182546001600160a01b0319166001600160a01b039091161782556020909201916001909101906200016c565b5b80821115620001475760008155600101620001a4565b80516001600160a01b0381168114620001d257600080fd5b919050565b60006020808385031215620001ea578182fd5b82516001600160401b038082111562000201578384fd5b818501915085601f83011262000215578384fd5b8151818111156200022a576200022a620002e8565b8060051b604051601f19603f83011681018181108582111715620002525762000252620002e8565b604052828152858101935084860182860187018a101562000271578788fd5b8795505b838610156200029e576200028981620001ba565b85526001959095019493860193860162000275565b5098975050505050505050565b600181811c90821680620002c057607f821691505b60208210811415620002e257634e487b7160e01b600052602260045260246000fd5b50919050565b634e487b7160e01b600052604160045260246000fd5b612011806200030e6000396000f3fe608060405234801561001057600080fd5b506004361061018e5760003560e01c806360f7de42116100de578063b88d4fde11610097578063d547cfb711610071578063d547cfb714610394578063d79875eb1461039c578063e985e9c5146103af578063ef5d6bbb146103eb57600080fd5b8063b88d4fde1461035b578063c4fa6e211461036e578063c87b56dd1461038157600080fd5b806360f7de42146102f45780636352211e1461030757806370a082311461031a57806387e320e41461032d57806395d89b4114610340578063a22cb4651461034857600080fd5b80631b65e4e21161014b57806330176e131161012557806330176e131461029b57806330b0b5e9146102ae578063321f5327146102c157806342842e0e146102e157600080fd5b80631b65e4e21461026257806323b872dd146102755780632f54bf6e1461028857600080fd5b806301ffc9a71461019357806305b7cdd3146101bb57806306fdde03146101d0578063081812fc146101e5578063095ea7b314610210578063132e544f14610223575b600080fd5b6101a66101a1366004611c57565b6103fe565b60405190151581526020015b60405180910390f35b6101ce6101c9366004611d28565b610450565b005b6101d861049f565b6040516101b29190611dfc565b6101f86101f3366004611cd5565b610531565b6040516001600160a01b0390911681526020016101b2565b6101ce61021e366004611c0c565b6105cb565b610254610231366004611ced565b600b60209081526000938452604080852082529284528284209052825290205481565b6040519081526020016101b2565b6101ce610270366004611c35565b6106f3565b6101ce610283366004611b1e565b6107a3565b6101a6610296366004611acb565b6107db565b6101ce6102a9366004611c8f565b61084c565b6102546102bc366004611acb565b6108c1565b6102546102cf366004611cd5565b600a6020526000908152604090205481565b6101ce6102ef366004611b1e565b61096c565b6101ce610302366004611d49565b610987565b6101f8610315366004611cd5565b6109c6565b610254610328366004611acb565b610a3d565b61025461033b366004611c35565b610ac4565b6101d8610ae5565b6101ce610356366004611bd2565b610af4565b6101ce610369366004611b59565b610bea565b61025461037c366004611acb565b610c29565b6101d861038f366004611cd5565b610ca9565b6101d8610cc4565b6101ce6103aa366004611d28565b610cd3565b6101a66103bd366004611aec565b6001600160a01b03918216600090815260056020908152604080832093909416825291909152205460ff1690565b6101ce6103f9366004611c35565b610cef565b60006001600160e01b031982166380ac58cd60e01b148061042f57506001600160e01b03198216635b5e139f60e01b145b8061044a57506301ffc9a760e01b6001600160e01b03198316145b92915050565b610458610e58565b6001600160a01b0316827f86524fd0375a2ead4230f971efd2d7187f65eeb8aaf7a0dbf2d5a22ac1addef38360405161049391815260200190565b60405180910390a35050565b6060600080546104ae90611f1c565b80601f01602080910402602001604051908101604052809291908181526020018280546104da90611f1c565b80156105275780601f106104fc57610100808354040283529160200191610527565b820191906000526020600020905b81548152906001019060200180831161050a57829003601f168201915b5050505050905090565b6000818152600260205260408120546001600160a01b03166105af5760405162461bcd60e51b815260206004820152602c60248201527f4552433732313a20617070726f76656420717565727920666f72206e6f6e657860448201526b34b9ba32b73a103a37b5b2b760a11b60648201526084015b60405180910390fd5b506000908152600460205260409020546001600160a01b031690565b60006105d6826109c6565b9050806001600160a01b0316836001600160a01b031614156106445760405162461bcd60e51b815260206004820152602160248201527f4552433732313a20617070726f76616c20746f2063757272656e74206f776e656044820152603960f91b60648201526084016105a6565b806001600160a01b0316610656610e58565b6001600160a01b031614806106725750610672816103bd610e58565b6106e45760405162461bcd60e51b815260206004820152603860248201527f4552433732313a20617070726f76652063616c6c6572206973206e6f74206f7760448201527f6e6572206e6f7220617070726f76656420666f7220616c6c000000000000000060648201526084016105a6565b6106ee8383610e62565b505050565b60006106fe83610ed0565b90506001600160a01b0382161580159061074557506000838152600b602090815260408083206001600160a01b038086168552908352818420908616845290915290205415155b1561077c576000928352600b602090815260408085206001600160a01b039384168652825280852093909216845291909152812055565b6000838152600a6020526040902054156106ee5750506000908152600a6020526040812055565b6107b46107ae610e58565b82610f46565b6107d05760405162461bcd60e51b81526004016105a690611e61565b6106ee838383611039565b6000805b60065481101561084657826001600160a01b03166006828154811061081457634e487b7160e01b600052603260045260246000fd5b6000918252602090912001546001600160a01b0316141561083457600191505b8061083e81611f51565b9150506107df565b50919050565b6108576102966111d9565b6108735760405162461bcd60e51b81526004016105a690611eb2565b80516108869060089060208401906119a0565b507fe0b4aa3a614e11365fec002edc82449b5849402d025b31c4770f0e270286e690816040516108b69190611dfc565b60405180910390a150565b60006108ce6102966111d9565b6108ea5760405162461bcd60e51b81526004016105a690611eb2565b60006108f46111d9565b90506000428260405160200161092692919091825260601b6bffffffffffffffffffffffff1916602082015260340190565b60408051601f1981840301815291815281516020928301206001600160a01b03948516600090815260078452828120979095168552959091529091208390555090919050565b6106ee83838360405180602001604052806000815250610bea565b600061099284610ed0565b6000948552600b602090815260408087206001600160a01b0393841688528252808720949092168652929092525090912055565b6000818152600260205260408120546001600160a01b03168061044a5760405162461bcd60e51b815260206004820152602960248201527f4552433732313a206f776e657220717565727920666f72206e6f6e657869737460448201526832b73a103a37b5b2b760b91b60648201526084016105a6565b60006001600160a01b038216610aa85760405162461bcd60e51b815260206004820152602a60248201527f4552433732313a2062616c616e636520717565727920666f7220746865207a65604482015269726f206164647265737360b01b60648201526084016105a6565b506001600160a01b031660009081526003602052604090205490565b600080610ad0846109c6565b9050610add848285611236565b949350505050565b6060600180546104ae90611f1c565b610afc610e58565b6001600160a01b0316826001600160a01b03161415610b5d5760405162461bcd60e51b815260206004820152601960248201527f4552433732313a20617070726f766520746f2063616c6c65720000000000000060448201526064016105a6565b8060056000610b6a610e58565b6001600160a01b03908116825260208083019390935260409182016000908120918716808252919093529120805460ff191692151592909217909155610bae610e58565b6001600160a01b03167f17307eab39ab6107e8899845ad3d59bd9653f200f220920489ca2b5937696c3183604051610493911515815260200190565b610bfb610bf5610e58565b83610f46565b610c175760405162461bcd60e51b81526004016105a690611e61565b610c2384848484611288565b50505050565b6000610c366102966111d9565b610c525760405162461bcd60e51b81526004016105a690611eb2565b60076000610c5e6111d9565b6001600160a01b03166001600160a01b031681526020019081526020016000206000836001600160a01b03166001600160a01b03168152602001908152602001600020549050919050565b606061044a610cb6610cc4565b610cbf846112bb565b6113d5565b6060610cce61156e565b905090565b610cdc82610ed0565b506000918252600a602052604090912055565b610cfa6102966111d9565b610d165760405162461bcd60e51b81526004016105a690611eb2565b6000610d206111d9565b6001600160a01b038082166000908152600760209081526040808320938716835292905220549091508015801590610d5757508381145b610def5760405162461bcd60e51b815260206004820152605760248201527f64656e696564203a20612072656c696e71756973686d656e7420746f6b656e2060448201527f6d757374206265207072652d7365742063616c6c696e6720746865207072655460648201527f72616e736665724f776e657273686970206d6574686f64000000000000000000608482015260a4016105a6565b610df88261157d565b610e01836117f0565b6001600160a01b03808316600081815260076020908152604080832094881680845294909152808220829055517f8be0079c531659141344cd1fd0a4f28419497f9722a3daafe3b4186f6b6457e09190a350505050565b6000610cce6111d9565b600081815260046020526040902080546001600160a01b0319166001600160a01b0384169081179091558190610e97826109c6565b6001600160a01b03167f8c5be1e5ebec7d5bd14f71427d1e84f3dd0314c0f7b2291e5b200ac8c7c3b92560405160405180910390a45050565b600080610edc836109c6565b9050610ee6610e58565b6001600160a01b0316816001600160a01b03161461044a5760405162461bcd60e51b815260206004820152601860248201527f64656e696564203a20746f6b656e206e6f74206f776e6564000000000000000060448201526064016105a6565b6000818152600260205260408120546001600160a01b0316610fbf5760405162461bcd60e51b815260206004820152602c60248201527f4552433732313a206f70657261746f7220717565727920666f72206e6f6e657860448201526b34b9ba32b73a103a37b5b2b760a11b60648201526084016105a6565b6000610fca836109c6565b9050806001600160a01b0316846001600160a01b031614806110055750836001600160a01b0316610ffa84610531565b6001600160a01b0316145b80610add57506001600160a01b0380821660009081526005602090815260408083209388168352929052205460ff16610add565b826001600160a01b031661104c826109c6565b6001600160a01b0316146110b45760405162461bcd60e51b815260206004820152602960248201527f4552433732313a207472616e73666572206f6620746f6b656e2074686174206960448201526839903737ba1037bbb760b91b60648201526084016105a6565b6001600160a01b0382166111165760405162461bcd60e51b8152602060048201526024808201527f4552433732313a207472616e7366657220746f20746865207a65726f206164646044820152637265737360e01b60648201526084016105a6565b611121600082610e62565b6001600160a01b038316600090815260036020526040812080546001929061114a908490611f05565b90915550506001600160a01b0382166000908152600360205260408120805460019290611178908490611ed9565b909155505060008181526002602052604080822080546001600160a01b0319166001600160a01b0386811691821790925591518493918716917fddf252ad1be2c89b69c2b068fc378daa952ba7f163c4a11628f55a4df523b3ef91a4505050565b60003330141561123057600080368080601f0160208091040260200160405190810160405280939291908181526020018383808284376000920191909152505050503601516001600160a01b031691506112339050565b50335b90565b6000838152600a6020908152604080832054600b83528184206001600160a01b03808816865290845282852090861685529092528220548015158061127b578261127d565b815b979650505050505050565b611293848484611039565b61129f8484848461188c565b610c235760405162461bcd60e51b81526004016105a690611e0f565b6060816112df5750506040805180820190915260018152600360fc1b602082015290565b8160005b811561130957806112f381611f51565b91506113029050600a83611ef1565b91506112e3565b60008167ffffffffffffffff81111561133257634e487b7160e01b600052604160045260246000fd5b6040519080825280601f01601f19166020018201604052801561135c576020820181803683370190505b5090505b8415610add57611371600183611f05565b915061137e600a86611f6c565b611389906030611ed9565b60f81b8183815181106113ac57634e487b7160e01b600052603260045260246000fd5b60200101906001600160f81b031916908160001a9053506113ce600a86611ef1565b9450611360565b80518251606091849184916000916113ed9190611ed9565b67ffffffffffffffff81111561141357634e487b7160e01b600052604160045260246000fd5b6040519080825280601f01601f19166020018201604052801561143d576020820181803683370190505b509050806000805b85518110156114d15785818151811061146e57634e487b7160e01b600052603260045260246000fd5b01602001516001600160f81b031916838361148881611f51565b9450815181106114a857634e487b7160e01b600052603260045260246000fd5b60200101906001600160f81b031916908160001a905350806114c981611f51565b915050611445565b5060005b8451811015611561578481815181106114fe57634e487b7160e01b600052603260045260246000fd5b01602001516001600160f81b031916838361151881611f51565b94508151811061153857634e487b7160e01b600052603260045260246000fd5b60200101906001600160f81b031916908160001a9053508061155981611f51565b9150506114d5565b5090979650505050505050565b6060600880546104ae90611f1c565b806001600160a01b0381166115c65760405162461bcd60e51b815260206004820152600f60248201526e696e76616c6964206164647265737360881b60448201526064016105a6565b6115cf826107db565b61161b5760405162461bcd60e51b815260206004820152601760248201527f61646472657373206973206e6f7420616e206f776e657200000000000000000060448201526064016105a6565b60065460009061162d90600190611f05565b905060005b60065481101561179e57836001600160a01b03166006828154811061166757634e487b7160e01b600052603260045260246000fd5b6000918252602090912001546001600160a01b0316141561178c5760065481106116915750505050565b805b6006546116a290600190611f05565b8110156117495760066116b6826001611ed9565b815481106116d457634e487b7160e01b600052603260045260246000fd5b600091825260209091200154600680546001600160a01b03909216918390811061170e57634e487b7160e01b600052603260045260246000fd5b600091825260209091200180546001600160a01b0319166001600160a01b03929092169190911790558061174181611f51565b915050611693565b50600680548061176957634e487b7160e01b600052603160045260246000fd5b600082815260209020810160001990810180546001600160a01b03191690550190555b8061179681611f51565b915050611632565b5060065481146106ee5760405162461bcd60e51b815260206004820152601860248201527f6f776e65722063616e206e6f742062652072656d6f766564000000000000000060448201526064016105a6565b806001600160a01b0381166118395760405162461bcd60e51b815260206004820152600f60248201526e696e76616c6964206164647265737360881b60448201526064016105a6565b50600680546001810182556000919091527ff652222313e28459528d920b65115c16c04f3efc82aaedc97be59f3f377c0d3f0180546001600160a01b0319166001600160a01b0392909216919091179055565b60006001600160a01b0384163b1561199557836001600160a01b031663150b7a026118b5610e58565b8786866040518563ffffffff1660e01b81526004016118d79493929190611dbf565b602060405180830381600087803b1580156118f157600080fd5b505af1925050508015611921575060408051601f3d908101601f1916820190925261191e91810190611c73565b60015b61197b573d80801561194f576040519150601f19603f3d011682016040523d82523d6000602084013e611954565b606091505b5080516119735760405162461bcd60e51b81526004016105a690611e0f565b805181602001fd5b6001600160e01b031916630a85bd0160e11b149050610add565b506001949350505050565b8280546119ac90611f1c565b90600052602060002090601f0160209004810192826119ce5760008555611a14565b82601f106119e757805160ff1916838001178555611a14565b82800160010185558215611a14579182015b82811115611a145782518255916020019190600101906119f9565b50611a20929150611a24565b5090565b5b80821115611a205760008155600101611a25565b600067ffffffffffffffff80841115611a5457611a54611fac565b604051601f8501601f19908116603f01168101908282118183101715611a7c57611a7c611fac565b81604052809350858152868686011115611a9557600080fd5b858560208301376000602087830101525050509392505050565b80356001600160a01b0381168114611ac657600080fd5b919050565b600060208284031215611adc578081fd5b611ae582611aaf565b9392505050565b60008060408385031215611afe578081fd5b611b0783611aaf565b9150611b1560208401611aaf565b90509250929050565b600080600060608486031215611b32578081fd5b611b3b84611aaf565b9250611b4960208501611aaf565b9150604084013590509250925092565b60008060008060808587031215611b6e578081fd5b611b7785611aaf565b9350611b8560208601611aaf565b925060408501359150606085013567ffffffffffffffff811115611ba7578182fd5b8501601f81018713611bb7578182fd5b611bc687823560208401611a39565b91505092959194509250565b60008060408385031215611be4578182fd5b611bed83611aaf565b915060208301358015158114611c01578182fd5b809150509250929050565b60008060408385031215611c1e578182fd5b611c2783611aaf565b946020939093013593505050565b60008060408385031215611c47578182fd5b82359150611b1560208401611aaf565b600060208284031215611c68578081fd5b8135611ae581611fc2565b600060208284031215611c84578081fd5b8151611ae581611fc2565b600060208284031215611ca0578081fd5b813567ffffffffffffffff811115611cb6578182fd5b8201601f81018413611cc6578182fd5b610add84823560208401611a39565b600060208284031215611ce6578081fd5b5035919050565b600080600060608486031215611d01578283fd5b83359250611d1160208501611aaf565b9150611d1f60408501611aaf565b90509250925092565b60008060408385031215611d3a578182fd5b50508035926020909101359150565b600080600060608486031215611d5d578081fd5b8335925060208401359150611d1f60408501611aaf565b60008151808452815b81811015611d9957602081850181015186830182015201611d7d565b81811115611daa5782602083870101525b50601f01601f19169290920160200192915050565b6001600160a01b0385811682528416602082015260408101839052608060608201819052600090611df290830184611d74565b9695505050505050565b602081526000611ae56020830184611d74565b60208082526032908201527f4552433732313a207472616e7366657220746f206e6f6e20455243373231526560408201527131b2b4bb32b91034b6b83632b6b2b73a32b960711b606082015260800190565b60208082526031908201527f4552433732313a207472616e736665722063616c6c6572206973206e6f74206f6040820152701ddb995c881b9bdc88185c1c1c9bdd9959607a1b606082015260800190565b6020808252600d908201526c1858d8d95cdcc819195b9a5959609a1b604082015260600190565b60008219821115611eec57611eec611f80565b500190565b600082611f0057611f00611f96565b500490565b600082821015611f1757611f17611f80565b500390565b600181811c90821680611f3057607f821691505b6020821081141561084657634e487b7160e01b600052602260045260246000fd5b6000600019821415611f6557611f65611f80565b5060010190565b600082611f7b57611f7b611f96565b500690565b634e487b7160e01b600052601160045260246000fd5b634e487b7160e01b600052601260045260246000fd5b634e487b7160e01b600052604160045260246000fd5b6001600160e01b031981168114611fd857600080fd5b5056fea2646970667358221220ba68c26066e23d8eb73da3a42e5456e281fa62f2756d04c4fda6ab039d29573464736f6c63430008040033",
  "immutableReferences": {},
  "source": "// SPDX-License-Identifier : GPL-v3-only\npragma solidity ^0.8.0;\n\n// import \"@openzeppelin/contracts/token/ERC721/ERC721.sol\";\nimport \"@openzeppelin/contracts/security/ReentrancyGuard.sol\";\nimport \"./OpenSeaERC721Metadatas.sol\";\n\n/**                 \n *                                                              \n *                                                                  \n *                                                                     \n *                                                                   \n *                                                                  \n *                                                             \n *                                                          \n *      VISIT HTTPS://PIXSALE.IO\n *      JOIN THE MAP !\n *             \n * @title PIXSMarket\n * @author Mathieu L\n * @dev Established on JUNE 23rd, 2021    \n * @dev Deployed with solc version 0.8.4\n * @dev Contact us at go@pixsale.io                                  \n*/\ncontract PIXSMarket is OpenSeaERC721Metadatas, ReentrancyGuard {\n\n    /// @notice token Id => sale price\n    mapping (uint => uint) public salePrices;\n\n    /// @notice token Id => owner => buyer => price\n    mapping (uint => mapping(address => mapping(address => uint))) public privateSalePrices;\n\n    /// @dev Event firing when an offer has been made by a user to buy a specific token at proposed price\n    event IsOffering(uint indexed tokenId, address indexed offerer, uint amount);\n\n    /// @dev Check that caller is owner of a spacific token\n    function onlyOwnerOf(uint tokenId) internal view returns(address tokenOwner) {\n        address tOwner = ownerOf(tokenId);\n        require(address(tOwner) == address(_msgSender()), 'denied : token not owned');\n        tokenOwner = tOwner;\n    }\n\n    constructor(address[] memory _owners) ERC721('Pixsale', 'PIXS') SharedOwnership(_owners) {}\n    \n    /// @dev Allows holders to sell their PIXS at chosen price to anyone\n    function sell(uint _tokenId, uint _amount) public {\n        onlyOwnerOf(_tokenId);\n        salePrices[_tokenId] = _amount;\n    }\n\n    /// @dev Allows holders to sell their PIXS at chosen price to a specific address\n    function privateSellTo(uint _tokenId, uint _amount, address _buyer) public {\n        address tokenOwner = onlyOwnerOf(_tokenId);\n        privateSalePrices[_tokenId][tokenOwner][_buyer] = _amount;\n    }\n\n    /// @dev Remove a token from public sale or remove a private buyer from approved private buyers\n    /// @param _tokenId token Id to remove from sale OR to remove `_optBuyer` from sale\n    /// @param _optBuyer *optional* if a valid buyer address is provided, \n    /// the buyer will be removed from allowedBuyers\n    function removeFromSale(uint _tokenId, address _optBuyer) public {\n        address tokenOwner = onlyOwnerOf(_tokenId);\n\n        if (\n            (address(_optBuyer) != address(0))\n            && privateSalePrices[_tokenId][tokenOwner][_optBuyer] != 0\n        ) {\n            privateSalePrices[_tokenId][tokenOwner][_optBuyer] = 0;\n        }\n        else if(salePrices[_tokenId] != 0) {\n            salePrices[_tokenId] = 0;\n        }\n    }\n\n    function _getTokenPrice(uint _tokenId, address _tokenOwner, address _sender) internal view returns(uint tokenPrice) {\n\n        uint pubSale = salePrices[_tokenId];\n        uint privateSale = privateSalePrices[_tokenId][_tokenOwner][_sender];\n\n        bool isPrivateSale = privateSale > 0;\n\n        tokenPrice = (\n            (isPrivateSale)\n            ? privateSale\n            : pubSale\n        );\n    }\n\n    function getTokenPrice(uint _tokenId, address _sender) public view returns(uint tokenPrice) {\n        address _tokenOwner = ownerOf(_tokenId);\n        tokenPrice = _getTokenPrice(_tokenId, _tokenOwner, _sender);\n    }\n\n    // /// @dev Allow users to buy PIXS tokens if on sale\n    // function buy(uint _tokenId) public payable nonReentrant {\n    //     address sender = _msgSender();\n    //     address tokenOwner = ownerOf(_tokenId);\n\n    //     require(tokenOwner != sender, 'cant buy to self');\n\n    //     uint tokenPrice = _getTokenPrice(_tokenId, tokenOwner, sender);\n\n    //     require(\n    //         tokenPrice > 0, \n    //         'PIXS must be on sale'\n    //     );\n\n    //     require(\n    //         msg.value >= tokenPrice \n    //     );\n\n    //     payable(address(tokenOwner)).sendValue(tokenPrice);\n        \n    //     // transfer and clear old owner approvals\n    //     _transfer(tokenOwner, sender, _tokenId);\n\n    //     // remove from public sale\n    //     salePrices[_tokenId] = 0;\n\n    // }\n\n\n\n    /// @dev Allow users to propose a price for the purchase of a token that is or not for sale\n    /// @param _tokenId Token targeted by sender\n    /// @param _amount amount in BNB that sender proposes to buy the token\n    function makeOffer(uint _tokenId, uint _amount) external {\n        emit IsOffering(_tokenId, _msgSender(), _amount);\n    }\n\n\n\n\n}",
  "sourcePath": "/Users/proapps/Documents/Mat/Apps/Pixsale/Pixsale-ERC721/contracts/PIXSMarket.sol",
  "compiler": {
    "name": "solc",
    "version": "0.8.4+commit.c7e474f2.Emscripten.clang"
  },
  "schemaVersion": "3.4.1",
  "updatedAt": "2021-06-24T21:56:43.274Z",
  "devdoc": {
    "author": "Mathieu L",
    "details": "Established on JUNE 23rd, 2021    Deployed with solc version 0.8.4Contact us at go@pixsale.io                                  ",
    "events": {
      "IsOffering(uint256,address,uint256)": {
        "details": "Event firing when an offer has been made by a user to buy a specific token at proposed price"
      }
    },
    "kind": "dev",
    "methods": {
      "approve(address,uint256)": {
        "details": "See {IERC721-approve}."
      },
      "balanceOf(address)": {
        "details": "See {IERC721-balanceOf}."
      },
      "baseTokenURI()": {
        "details": "Retrieve all NFTs base token uri "
      },
      "getApproved(uint256)": {
        "details": "See {IERC721-getApproved}."
      },
      "getRelinquishmentToken(address)": {
        "details": "Retrieve the ownership transfer key preset by a current owner to a new owner preTransferOwnership method must be called prior to calling this method"
      },
      "isApprovedForAll(address,address)": {
        "details": "See {IERC721-isApprovedForAll}."
      },
      "isOwner(address)": {
        "details": "check if an address is one of the owners"
      },
      "makeOffer(uint256,uint256)": {
        "details": "Allow users to propose a price for the purchase of a token that is or not for sale",
        "params": {
          "_amount": "amount in BNB that sender proposes to buy the token",
          "_tokenId": "Token targeted by sender"
        }
      },
      "name()": {
        "details": "See {IERC721Metadata-name}."
      },
      "ownerOf(uint256)": {
        "details": "See {IERC721-ownerOf}."
      },
      "preTransferOwnership(address)": {
        "details": "Allows any current owner to relinquish its part of control over the contract",
        "params": {
          "_newOwner": "address of the futur new owner"
        },
        "returns": {
          "_relinquishmentToken": "bytes32 ownership transfer key for msg.sender => _newOwner"
        }
      },
      "privateSellTo(uint256,uint256,address)": {
        "details": "Allows holders to sell their PIXS at chosen price to a specific address"
      },
      "removeFromSale(uint256,address)": {
        "details": "Remove a token from public sale or remove a private buyer from approved private buyers",
        "params": {
          "_optBuyer": "*optional* if a valid buyer address is provided,  the buyer will be removed from allowedBuyers",
          "_tokenId": "token Id to remove from sale OR to remove `_optBuyer` from sale"
        }
      },
      "safeTransferFrom(address,address,uint256)": {
        "details": "See {IERC721-safeTransferFrom}."
      },
      "safeTransferFrom(address,address,uint256,bytes)": {
        "details": "See {IERC721-safeTransferFrom}."
      },
      "sell(uint256,uint256)": {
        "details": "Allows holders to sell their PIXS at chosen price to anyone"
      },
      "setApprovalForAll(address,bool)": {
        "details": "See {IERC721-setApprovalForAll}."
      },
      "setBaseTokenURI(string)": {
        "details": "Set the base token uri for all NFTs"
      },
      "supportsInterface(bytes4)": {
        "details": "See {IERC165-supportsInterface}."
      },
      "symbol()": {
        "details": "See {IERC721Metadata-symbol}."
      },
      "tokenURI(uint256)": {
        "details": "Retrieve the uri of a specific token ",
        "params": {
          "_tokenId": "the id of the token to retrieve the uri of"
        },
        "returns": {
          "_0": "computed uri string pointing to a specific _tokenId"
        }
      },
      "transferFrom(address,address,uint256)": {
        "details": "See {IERC721-transferFrom}."
      },
      "transferOwnership(bytes32,address)": {
        "details": "Allows any current owner to definitively and safely relinquish its part of control over the contract to a new address"
      }
    },
    "title": "PIXSMarket",
    "version": 1
  },
  "userdoc": {
    "kind": "user",
    "methods": {
      "preTransferOwnership(address)": {
        "notice": "the calling contract owner must call this method to get the `relinquishmentToken`  prior calling `renounceOwnership` method and definitively loose his ownership"
      },
      "privateSalePrices(uint256,address,address)": {
        "notice": "token Id => owner => buyer => price"
      },
      "salePrices(uint256)": {
        "notice": "token Id => sale price"
      },
      "transferOwnership(bytes32,address)": {
        "notice": "IRREVERSIBLE ACTION"
      }
    },
    "notice": "                                                                                                                                                                                                                                                                                                                                                                                                                                                                 VISIT HTTPS://PIXSALE.IO      JOIN THE MAP !             ",
    "version": 1
  }
}