{
  "contractName": "Pixsale",
  "abi": [
    {
      "inputs": [
        {
          "internalType": "address[]",
          "name": "_owners",
          "type": "address[]"
        },
        {
          "internalType": "string",
          "name": "baseTokenURI",
          "type": "string"
        }
      ],
      "stateMutability": "nonpayable",
      "type": "constructor"
    },
    {
      "anonymous": false,
      "inputs": [
        {
          "indexed": true,
          "internalType": "address",
          "name": "owner",
          "type": "address"
        },
        {
          "indexed": true,
          "internalType": "address",
          "name": "approved",
          "type": "address"
        },
        {
          "indexed": true,
          "internalType": "uint256",
          "name": "tokenId",
          "type": "uint256"
        }
      ],
      "name": "Approval",
      "type": "event"
    },
    {
      "anonymous": false,
      "inputs": [
        {
          "indexed": true,
          "internalType": "address",
          "name": "owner",
          "type": "address"
        },
        {
          "indexed": true,
          "internalType": "address",
          "name": "operator",
          "type": "address"
        },
        {
          "indexed": false,
          "internalType": "bool",
          "name": "approved",
          "type": "bool"
        }
      ],
      "name": "ApprovalForAll",
      "type": "event"
    },
    {
      "anonymous": false,
      "inputs": [
        {
          "indexed": false,
          "internalType": "string",
          "name": "uri",
          "type": "string"
        }
      ],
      "name": "BaseTokenUriUpdated",
      "type": "event"
    },
    {
      "anonymous": false,
      "inputs": [
        {
          "indexed": true,
          "internalType": "uint256",
          "name": "tokenId",
          "type": "uint256"
        },
        {
          "indexed": true,
          "internalType": "address",
          "name": "offerer",
          "type": "address"
        },
        {
          "indexed": false,
          "internalType": "uint256",
          "name": "amount",
          "type": "uint256"
        }
      ],
      "name": "IsOffering",
      "type": "event"
    },
    {
      "anonymous": false,
      "inputs": [
        {
          "indexed": true,
          "internalType": "address",
          "name": "previousOwner",
          "type": "address"
        }
      ],
      "name": "OwnershipRenounced",
      "type": "event"
    },
    {
      "anonymous": false,
      "inputs": [
        {
          "indexed": true,
          "internalType": "address",
          "name": "previousOwner",
          "type": "address"
        },
        {
          "indexed": true,
          "internalType": "address",
          "name": "newOwner",
          "type": "address"
        }
      ],
      "name": "OwnershipTransferred",
      "type": "event"
    },
    {
      "anonymous": false,
      "inputs": [],
      "name": "ReflectionIsReleased",
      "type": "event"
    },
    {
      "anonymous": false,
      "inputs": [
        {
          "indexed": true,
          "internalType": "address",
          "name": "orderer",
          "type": "address"
        },
        {
          "indexed": false,
          "internalType": "uint256",
          "name": "refundAmount",
          "type": "uint256"
        }
      ],
      "name": "Refunded",
      "type": "event"
    },
    {
      "anonymous": false,
      "inputs": [
        {
          "indexed": true,
          "internalType": "address",
          "name": "from",
          "type": "address"
        },
        {
          "indexed": true,
          "internalType": "address",
          "name": "to",
          "type": "address"
        },
        {
          "indexed": true,
          "internalType": "uint256",
          "name": "tokenId",
          "type": "uint256"
        }
      ],
      "name": "Transfer",
      "type": "event"
    },
    {
      "inputs": [
        {
          "internalType": "address",
          "name": "to",
          "type": "address"
        },
        {
          "internalType": "uint256",
          "name": "tokenId",
          "type": "uint256"
        }
      ],
      "name": "approve",
      "outputs": [],
      "stateMutability": "nonpayable",
      "type": "function"
    },
    {
      "inputs": [
        {
          "internalType": "address",
          "name": "owner",
          "type": "address"
        }
      ],
      "name": "balanceOf",
      "outputs": [
        {
          "internalType": "uint256",
          "name": "",
          "type": "uint256"
        }
      ],
      "stateMutability": "view",
      "type": "function",
      "constant": true
    },
    {
      "inputs": [],
      "name": "baseTokenURI",
      "outputs": [
        {
          "internalType": "string",
          "name": "",
          "type": "string"
        }
      ],
      "stateMutability": "view",
      "type": "function",
      "constant": true
    },
    {
      "inputs": [],
      "name": "birthTime",
      "outputs": [
        {
          "internalType": "uint256",
          "name": "",
          "type": "uint256"
        }
      ],
      "stateMutability": "view",
      "type": "function",
      "constant": true
    },
    {
      "inputs": [],
      "name": "comWallet",
      "outputs": [
        {
          "internalType": "address",
          "name": "",
          "type": "address"
        }
      ],
      "stateMutability": "view",
      "type": "function",
      "constant": true
    },
    {
      "inputs": [
        {
          "internalType": "uint256",
          "name": "tokenId",
          "type": "uint256"
        }
      ],
      "name": "getApproved",
      "outputs": [
        {
          "internalType": "address",
          "name": "",
          "type": "address"
        }
      ],
      "stateMutability": "view",
      "type": "function",
      "constant": true
    },
    {
      "inputs": [
        {
          "internalType": "address",
          "name": "_newOwner",
          "type": "address"
        }
      ],
      "name": "getRelinquishmentToken",
      "outputs": [
        {
          "internalType": "bytes32",
          "name": "_rToken",
          "type": "bytes32"
        }
      ],
      "stateMutability": "view",
      "type": "function",
      "constant": true
    },
    {
      "inputs": [
        {
          "internalType": "uint256",
          "name": "_tokenId",
          "type": "uint256"
        },
        {
          "internalType": "address",
          "name": "_sender",
          "type": "address"
        }
      ],
      "name": "getTokenPrice",
      "outputs": [
        {
          "internalType": "uint256",
          "name": "tokenPrice",
          "type": "uint256"
        }
      ],
      "stateMutability": "view",
      "type": "function",
      "constant": true
    },
    {
      "inputs": [
        {
          "internalType": "address",
          "name": "addr",
          "type": "address"
        }
      ],
      "name": "isOwner",
      "outputs": [
        {
          "internalType": "bool",
          "name": "isOwnerAddr",
          "type": "bool"
        }
      ],
      "stateMutability": "view",
      "type": "function",
      "constant": true
    },
    {
      "inputs": [
        {
          "internalType": "uint256",
          "name": "_tokenId",
          "type": "uint256"
        },
        {
          "internalType": "uint256",
          "name": "_amount",
          "type": "uint256"
        }
      ],
      "name": "makeOffer",
      "outputs": [],
      "stateMutability": "nonpayable",
      "type": "function"
    },
    {
      "inputs": [],
      "name": "minimumPixelsAmount",
      "outputs": [
        {
          "internalType": "uint256",
          "name": "",
          "type": "uint256"
        }
      ],
      "stateMutability": "view",
      "type": "function",
      "constant": true
    },
    {
      "inputs": [],
      "name": "minimumPixelsLength",
      "outputs": [
        {
          "internalType": "uint256",
          "name": "",
          "type": "uint256"
        }
      ],
      "stateMutability": "view",
      "type": "function",
      "constant": true
    },
    {
      "inputs": [],
      "name": "name",
      "outputs": [
        {
          "internalType": "string",
          "name": "",
          "type": "string"
        }
      ],
      "stateMutability": "view",
      "type": "function",
      "constant": true
    },
    {
      "inputs": [
        {
          "internalType": "uint256",
          "name": "tokenId",
          "type": "uint256"
        }
      ],
      "name": "ownerOf",
      "outputs": [
        {
          "internalType": "address",
          "name": "",
          "type": "address"
        }
      ],
      "stateMutability": "view",
      "type": "function",
      "constant": true
    },
    {
      "inputs": [],
      "name": "pixelPrice",
      "outputs": [
        {
          "internalType": "uint256",
          "name": "",
          "type": "uint256"
        }
      ],
      "stateMutability": "view",
      "type": "function",
      "constant": true
    },
    {
      "inputs": [
        {
          "internalType": "address",
          "name": "",
          "type": "address"
        }
      ],
      "name": "pixelsBalance",
      "outputs": [
        {
          "internalType": "uint256",
          "name": "",
          "type": "uint256"
        }
      ],
      "stateMutability": "view",
      "type": "function",
      "constant": true
    },
    {
      "inputs": [
        {
          "internalType": "uint256",
          "name": "",
          "type": "uint256"
        }
      ],
      "name": "pixs",
      "outputs": [
        {
          "internalType": "address",
          "name": "owner",
          "type": "address"
        },
        {
          "internalType": "uint256",
          "name": "pixels",
          "type": "uint256"
        },
        {
          "internalType": "string",
          "name": "image",
          "type": "string"
        },
        {
          "internalType": "string",
          "name": "link",
          "type": "string"
        },
        {
          "internalType": "string",
          "name": "titledDescription",
          "type": "string"
        }
      ],
      "stateMutability": "view",
      "type": "function",
      "constant": true
    },
    {
      "inputs": [
        {
          "internalType": "address",
          "name": "_newOwner",
          "type": "address"
        }
      ],
      "name": "preTransferOwnership",
      "outputs": [
        {
          "internalType": "bytes32",
          "name": "_relinquishmentToken",
          "type": "bytes32"
        }
      ],
      "stateMutability": "nonpayable",
      "type": "function"
    },
    {
      "inputs": [
        {
          "internalType": "uint256",
          "name": "",
          "type": "uint256"
        },
        {
          "internalType": "address",
          "name": "",
          "type": "address"
        },
        {
          "internalType": "address",
          "name": "",
          "type": "address"
        }
      ],
      "name": "privateSalePrices",
      "outputs": [
        {
          "internalType": "uint256",
          "name": "",
          "type": "uint256"
        }
      ],
      "stateMutability": "view",
      "type": "function",
      "constant": true
    },
    {
      "inputs": [
        {
          "internalType": "uint256",
          "name": "_tokenId",
          "type": "uint256"
        },
        {
          "internalType": "uint256",
          "name": "_amount",
          "type": "uint256"
        },
        {
          "internalType": "address",
          "name": "_buyer",
          "type": "address"
        }
      ],
      "name": "privateSellTo",
      "outputs": [],
      "stateMutability": "nonpayable",
      "type": "function"
    },
    {
      "inputs": [],
      "name": "reflectionReleaseTimestamp",
      "outputs": [
        {
          "internalType": "uint256",
          "name": "",
          "type": "uint256"
        }
      ],
      "stateMutability": "view",
      "type": "function",
      "constant": true
    },
    {
      "inputs": [
        {
          "internalType": "uint256",
          "name": "",
          "type": "uint256"
        }
      ],
      "name": "reflectionWithdrawn",
      "outputs": [
        {
          "internalType": "bool",
          "name": "",
          "type": "bool"
        }
      ],
      "stateMutability": "view",
      "type": "function",
      "constant": true
    },
    {
      "inputs": [
        {
          "internalType": "uint256",
          "name": "_tokenId",
          "type": "uint256"
        },
        {
          "internalType": "address",
          "name": "_optBuyer",
          "type": "address"
        }
      ],
      "name": "removeFromSale",
      "outputs": [],
      "stateMutability": "nonpayable",
      "type": "function"
    },
    {
      "inputs": [
        {
          "internalType": "address",
          "name": "from",
          "type": "address"
        },
        {
          "internalType": "address",
          "name": "to",
          "type": "address"
        },
        {
          "internalType": "uint256",
          "name": "tokenId",
          "type": "uint256"
        }
      ],
      "name": "safeTransferFrom",
      "outputs": [],
      "stateMutability": "nonpayable",
      "type": "function"
    },
    {
      "inputs": [
        {
          "internalType": "address",
          "name": "from",
          "type": "address"
        },
        {
          "internalType": "address",
          "name": "to",
          "type": "address"
        },
        {
          "internalType": "uint256",
          "name": "tokenId",
          "type": "uint256"
        },
        {
          "internalType": "bytes",
          "name": "_data",
          "type": "bytes"
        }
      ],
      "name": "safeTransferFrom",
      "outputs": [],
      "stateMutability": "nonpayable",
      "type": "function"
    },
    {
      "inputs": [
        {
          "internalType": "uint256",
          "name": "",
          "type": "uint256"
        }
      ],
      "name": "salePrices",
      "outputs": [
        {
          "internalType": "uint256",
          "name": "",
          "type": "uint256"
        }
      ],
      "stateMutability": "view",
      "type": "function",
      "constant": true
    },
    {
      "inputs": [
        {
          "internalType": "uint256",
          "name": "_tokenId",
          "type": "uint256"
        },
        {
          "internalType": "uint256",
          "name": "_amount",
          "type": "uint256"
        }
      ],
      "name": "sell",
      "outputs": [],
      "stateMutability": "nonpayable",
      "type": "function"
    },
    {
      "inputs": [
        {
          "internalType": "address",
          "name": "operator",
          "type": "address"
        },
        {
          "internalType": "bool",
          "name": "approved",
          "type": "bool"
        }
      ],
      "name": "setApprovalForAll",
      "outputs": [],
      "stateMutability": "nonpayable",
      "type": "function"
    },
    {
      "inputs": [
        {
          "internalType": "string",
          "name": "uri",
          "type": "string"
        }
      ],
      "name": "setBaseTokenURI",
      "outputs": [],
      "stateMutability": "nonpayable",
      "type": "function"
    },
    {
      "inputs": [
        {
          "internalType": "bytes4",
          "name": "interfaceId",
          "type": "bytes4"
        }
      ],
      "name": "supportsInterface",
      "outputs": [
        {
          "internalType": "bool",
          "name": "",
          "type": "bool"
        }
      ],
      "stateMutability": "view",
      "type": "function",
      "constant": true
    },
    {
      "inputs": [],
      "name": "symbol",
      "outputs": [
        {
          "internalType": "string",
          "name": "",
          "type": "string"
        }
      ],
      "stateMutability": "view",
      "type": "function",
      "constant": true
    },
    {
      "inputs": [],
      "name": "teamPixelsSupply",
      "outputs": [
        {
          "internalType": "uint256",
          "name": "",
          "type": "uint256"
        }
      ],
      "stateMutability": "view",
      "type": "function",
      "constant": true
    },
    {
      "inputs": [
        {
          "internalType": "uint256",
          "name": "_tokenId",
          "type": "uint256"
        }
      ],
      "name": "tokenURI",
      "outputs": [
        {
          "internalType": "string",
          "name": "",
          "type": "string"
        }
      ],
      "stateMutability": "view",
      "type": "function",
      "constant": true
    },
    {
      "inputs": [],
      "name": "totalAuction",
      "outputs": [
        {
          "internalType": "uint256",
          "name": "",
          "type": "uint256"
        }
      ],
      "stateMutability": "view",
      "type": "function",
      "constant": true
    },
    {
      "inputs": [],
      "name": "totalAuctionWithdrawn",
      "outputs": [
        {
          "internalType": "uint256",
          "name": "",
          "type": "uint256"
        }
      ],
      "stateMutability": "view",
      "type": "function",
      "constant": true
    },
    {
      "inputs": [],
      "name": "totalCom",
      "outputs": [
        {
          "internalType": "uint256",
          "name": "",
          "type": "uint256"
        }
      ],
      "stateMutability": "view",
      "type": "function",
      "constant": true
    },
    {
      "inputs": [],
      "name": "totalComWithdrawn",
      "outputs": [
        {
          "internalType": "uint256",
          "name": "",
          "type": "uint256"
        }
      ],
      "stateMutability": "view",
      "type": "function",
      "constant": true
    },
    {
      "inputs": [],
      "name": "totalPixels",
      "outputs": [
        {
          "internalType": "uint256",
          "name": "",
          "type": "uint256"
        }
      ],
      "stateMutability": "view",
      "type": "function",
      "constant": true
    },
    {
      "inputs": [],
      "name": "totalPixelsGaveway",
      "outputs": [
        {
          "internalType": "uint256",
          "name": "",
          "type": "uint256"
        }
      ],
      "stateMutability": "view",
      "type": "function",
      "constant": true
    },
    {
      "inputs": [],
      "name": "totalReflection",
      "outputs": [
        {
          "internalType": "uint256",
          "name": "",
          "type": "uint256"
        }
      ],
      "stateMutability": "view",
      "type": "function",
      "constant": true
    },
    {
      "inputs": [
        {
          "internalType": "address",
          "name": "from",
          "type": "address"
        },
        {
          "internalType": "address",
          "name": "to",
          "type": "address"
        },
        {
          "internalType": "uint256",
          "name": "tokenId",
          "type": "uint256"
        }
      ],
      "name": "transferFrom",
      "outputs": [],
      "stateMutability": "nonpayable",
      "type": "function"
    },
    {
      "inputs": [
        {
          "internalType": "bytes32",
          "name": "_relinquishmentToken",
          "type": "bytes32"
        },
        {
          "internalType": "address",
          "name": "_newOwner",
          "type": "address"
        }
      ],
      "name": "transferOwnership",
      "outputs": [],
      "stateMutability": "nonpayable",
      "type": "function"
    },
    {
      "inputs": [
        {
          "internalType": "address",
          "name": "owner",
          "type": "address"
        },
        {
          "internalType": "address",
          "name": "operator",
          "type": "address"
        }
      ],
      "name": "isApprovedForAll",
      "outputs": [
        {
          "internalType": "bool",
          "name": "",
          "type": "bool"
        }
      ],
      "stateMutability": "view",
      "type": "function",
      "constant": true
    },
    {
      "inputs": [
        {
          "internalType": "address",
          "name": "_comAccount",
          "type": "address"
        }
      ],
      "name": "setComWallet",
      "outputs": [],
      "stateMutability": "nonpayable",
      "type": "function"
    },
    {
      "inputs": [],
      "name": "totalComAvailable",
      "outputs": [
        {
          "internalType": "uint256",
          "name": "ttlComAvail",
          "type": "uint256"
        }
      ],
      "stateMutability": "view",
      "type": "function",
      "constant": true
    },
    {
      "inputs": [],
      "name": "auctionWithdraw",
      "outputs": [],
      "stateMutability": "nonpayable",
      "type": "function"
    },
    {
      "inputs": [
        {
          "internalType": "uint256",
          "name": "_amount",
          "type": "uint256"
        }
      ],
      "name": "comPartnerWithdraw",
      "outputs": [],
      "stateMutability": "nonpayable",
      "type": "function"
    },
    {
      "inputs": [],
      "name": "availableGivewayPixels",
      "outputs": [
        {
          "internalType": "uint256",
          "name": "aGiveawayPixels",
          "type": "uint256"
        }
      ],
      "stateMutability": "view",
      "type": "function",
      "constant": true
    },
    {
      "inputs": [
        {
          "internalType": "uint256",
          "name": "amount",
          "type": "uint256"
        },
        {
          "internalType": "address",
          "name": "account",
          "type": "address"
        }
      ],
      "name": "transferPixels",
      "outputs": [],
      "stateMutability": "nonpayable",
      "type": "function"
    },
    {
      "inputs": [
        {
          "internalType": "uint256",
          "name": "tokenId",
          "type": "uint256"
        }
      ],
      "name": "getPixs",
      "outputs": [
        {
          "components": [
            {
              "internalType": "address",
              "name": "owner",
              "type": "address"
            },
            {
              "internalType": "uint256",
              "name": "pixels",
              "type": "uint256"
            },
            {
              "internalType": "uint256[]",
              "name": "coords",
              "type": "uint256[]"
            },
            {
              "internalType": "string",
              "name": "image",
              "type": "string"
            },
            {
              "internalType": "string",
              "name": "link",
              "type": "string"
            },
            {
              "internalType": "string",
              "name": "titledDescription",
              "type": "string"
            }
          ],
          "internalType": "struct Pixsale.PIXS",
          "name": "_pixs",
          "type": "tuple"
        }
      ],
      "stateMutability": "view",
      "type": "function",
      "constant": true
    },
    {
      "inputs": [],
      "name": "totalSupply",
      "outputs": [
        {
          "internalType": "uint256",
          "name": "tSupply",
          "type": "uint256"
        }
      ],
      "stateMutability": "view",
      "type": "function",
      "constant": true
    },
    {
      "inputs": [],
      "name": "soldPixels",
      "outputs": [
        {
          "internalType": "uint256",
          "name": "totalPixelsSold",
          "type": "uint256"
        }
      ],
      "stateMutability": "view",
      "type": "function",
      "constant": true
    },
    {
      "inputs": [],
      "name": "availablePixels",
      "outputs": [
        {
          "internalType": "uint256",
          "name": "totalPixelsAvailable",
          "type": "uint256"
        }
      ],
      "stateMutability": "view",
      "type": "function",
      "constant": true
    },
    {
      "inputs": [
        {
          "internalType": "uint256",
          "name": "_pixelsAmount",
          "type": "uint256"
        },
        {
          "internalType": "uint256[]",
          "name": "_coords",
          "type": "uint256[]"
        },
        {
          "internalType": "string",
          "name": "_image",
          "type": "string"
        },
        {
          "internalType": "string",
          "name": "_link",
          "type": "string"
        },
        {
          "internalType": "string",
          "name": "_titledDescription",
          "type": "string"
        }
      ],
      "name": "mint",
      "outputs": [
        {
          "internalType": "uint256",
          "name": "pixsId",
          "type": "uint256"
        }
      ],
      "stateMutability": "payable",
      "type": "function",
      "payable": true
    },
    {
      "inputs": [
        {
          "internalType": "uint256",
          "name": "_pixelsAmount",
          "type": "uint256"
        },
        {
          "internalType": "uint256[]",
          "name": "_coords",
          "type": "uint256[]"
        },
        {
          "internalType": "string",
          "name": "_image",
          "type": "string"
        },
        {
          "internalType": "string",
          "name": "_link",
          "type": "string"
        },
        {
          "internalType": "string",
          "name": "_titledDescription",
          "type": "string"
        },
        {
          "internalType": "address",
          "name": "_owner",
          "type": "address"
        }
      ],
      "name": "mintTo",
      "outputs": [
        {
          "internalType": "uint256",
          "name": "pixsIdTo",
          "type": "uint256"
        }
      ],
      "stateMutability": "payable",
      "type": "function",
      "payable": true
    },
    {
      "inputs": [],
      "name": "thisBalance",
      "outputs": [
        {
          "internalType": "uint256",
          "name": "balance",
          "type": "uint256"
        }
      ],
      "stateMutability": "view",
      "type": "function",
      "constant": true
    },
    {
      "inputs": [
        {
          "internalType": "address",
          "name": "_holder",
          "type": "address"
        }
      ],
      "name": "pixelsOf",
      "outputs": [
        {
          "internalType": "uint256",
          "name": "ownerPixels",
          "type": "uint256"
        }
      ],
      "stateMutability": "view",
      "type": "function",
      "constant": true
    },
    {
      "inputs": [],
      "name": "reflectionReleased",
      "outputs": [
        {
          "internalType": "bool",
          "name": "released",
          "type": "bool"
        }
      ],
      "stateMutability": "view",
      "type": "function",
      "constant": true
    },
    {
      "inputs": [],
      "name": "allPixelsSold",
      "outputs": [
        {
          "internalType": "bool",
          "name": "noMorePixels",
          "type": "bool"
        }
      ],
      "stateMutability": "view",
      "type": "function",
      "constant": true
    },
    {
      "inputs": [
        {
          "internalType": "address",
          "name": "_holder",
          "type": "address"
        }
      ],
      "name": "reflectionBalanceOf",
      "outputs": [
        {
          "internalType": "uint256",
          "name": "rAmount",
          "type": "uint256"
        }
      ],
      "stateMutability": "view",
      "type": "function",
      "constant": true
    },
    {
      "inputs": [
        {
          "internalType": "uint256",
          "name": "pixels",
          "type": "uint256"
        },
        {
          "internalType": "uint256",
          "name": "position",
          "type": "uint256"
        }
      ],
      "name": "simulateReflection",
      "outputs": [
        {
          "internalType": "uint256",
          "name": "pixelsReflection",
          "type": "uint256"
        }
      ],
      "stateMutability": "view",
      "type": "function",
      "constant": true
    },
    {
      "inputs": [
        {
          "internalType": "uint256",
          "name": "_tokenId",
          "type": "uint256"
        }
      ],
      "name": "tokenReflection",
      "outputs": [
        {
          "internalType": "uint256",
          "name": "tReflection",
          "type": "uint256"
        }
      ],
      "stateMutability": "view",
      "type": "function",
      "constant": true
    },
    {
      "inputs": [],
      "name": "holdersReflectionWithdraw",
      "outputs": [],
      "stateMutability": "nonpayable",
      "type": "function"
    },
    {
      "inputs": [],
      "name": "ownersWithdrawOneYearAfterRelease",
      "outputs": [],
      "stateMutability": "nonpayable",
      "type": "function"
    },
    {
      "inputs": [],
      "name": "signProjectAbandonAndReflectionRelease",
      "outputs": [],
      "stateMutability": "nonpayable",
      "type": "function"
    },
    {
      "inputs": [],
      "name": "unsignProjectAbandonAndReflectionRelease",
      "outputs": [],
      "stateMutability": "nonpayable",
      "type": "function"
    },
    {
      "inputs": [
        {
          "internalType": "uint256",
          "name": "_tokenId",
          "type": "uint256"
        }
      ],
      "name": "buy",
      "outputs": [],
      "stateMutability": "payable",
      "type": "function",
      "payable": true
    },
    {
      "inputs": [
        {
          "internalType": "uint256",
          "name": "tokenId",
          "type": "uint256"
        },
        {
          "internalType": "address",
          "name": "receiver",
          "type": "address"
        }
      ],
      "name": "transfer",
      "outputs": [
        {
          "internalType": "bool",
          "name": "transferred",
          "type": "bool"
        }
      ],
      "stateMutability": "nonpayable",
      "type": "function"
    },
    {
      "inputs": [
        {
          "internalType": "uint256",
          "name": "tokenId",
          "type": "uint256"
        },
        {
          "internalType": "string",
          "name": "tDes",
          "type": "string"
        },
        {
          "internalType": "string",
          "name": "image",
          "type": "string"
        },
        {
          "internalType": "string",
          "name": "link",
          "type": "string"
        }
      ],
      "name": "editPixsMetadatas",
      "outputs": [],
      "stateMutability": "nonpayable",
      "type": "function"
    }
  ],
  "bytecode": "0x60e06040526019608052600560a052627e9000600e556605543df729c00060c0523480156200002d57600080fd5b5060405162005abb38038062005abb83398101604081905262000050916200028d565b604080518082018252600781526650697873616c6560c81b6020808301918252835180850190945260048452635049585360e01b908401528151859384939290916200009f91600091620000fe565b508051620000b5906001906020840190620000fe565b50508151620000cd915060069060208401906200018d565b50506001600955508051620000ea906008906020840190620000fe565b505062047e006014555042600d5562000404565b8280546200010c90620003b1565b90600052602060002090601f0160209004810192826200013057600085556200017b565b82601f106200014b57805160ff19168380011785556200017b565b828001600101855582156200017b579182015b828111156200017b5782518255916020019190600101906200015e565b5062000189929150620001e5565b5090565b8280548282559060005260206000209081019282156200017b579160200282015b828111156200017b57825182546001600160a01b0319166001600160a01b03909116178255602090920191600190910190620001ae565b5b80821115620001895760008155600101620001e6565b600082601f8301126200020d578081fd5b81516001600160401b03811115620002295762000229620003ee565b60206200023f601f8301601f191682016200037e565b828152858284870101111562000253578384fd5b835b838110156200027257858101830151828201840152820162000255565b838111156200028357848385840101525b5095945050505050565b60008060408385031215620002a0578182fd5b82516001600160401b0380821115620002b7578384fd5b818501915085601f830112620002cb578384fd5b8151602082821115620002e257620002e2620003ee565b8160051b620002f38282016200037e565b8381528281019086840183880185018c10156200030e57898afd5b8997505b858810156200034a57805193506001600160a01b03841684146200033457898afd5b8383526001979097019691840191840162000312565b50928901519297509194505050508082111562000365578283fd5b506200037485828601620001fc565b9150509250929050565b604051601f8201601f191681016001600160401b0381118282101715620003a957620003a9620003ee565b604052919050565b600181811c90821680620003c657607f821691505b60208210811415620003e857634e487b7160e01b600052602260045260246000fd5b50919050565b634e487b7160e01b600052604160045260246000fd5b60805160a05160c0516156416200047a60003960008181610c2d0152818161288701528181612ab101528181612ae001528181612b4a01528181612c4f0152818161304d0152613e8d0152600081816109f8015281816140fa0152614180015260008181610908015261406401526156416000f3fe6080604052600436106103fa5760003560e01c806369dade5711610213578063b3c5fb7311610123578063c87b56dd116100ab578063e985e9c51161007a578063e985e9c514610ba6578063ef5d6bbb14610bc6578063f0bf826f14610be6578063f431499a14610c06578063ffb8717314610c1b57600080fd5b8063c87b56dd14610b3e578063d547cfb714610b5e578063d79875eb14610b73578063d96a094a14610b9357600080fd5b8063bc0c68d9116100f2578063bc0c68d914610abd578063c060a2b614610ad3578063c22f006814610ae9578063c2c31b8014610b09578063c4fa6e2114610b1e57600080fd5b8063b3c5fb7314610a3a578063b7760c8f14610a50578063b7c43a9014610a70578063b88d4fde14610a9d57600080fd5b80638316af1a116101a657806395d89b411161017557806395d89b411461099b5780639bf9850f146109b05780639eafde36146109c65780639fe435bf146109e6578063a22cb46514610a1a57600080fd5b80638316af1a146108f657806384aa9fb61461092a57806387e320e41461094a57806388865afb1461096a57600080fd5b806379161427116101e257806379161427146108a15780637ea79447146108b65780637f6a5177146108cb5780638252ad9c146108e057600080fd5b806369dade571461081e5780636b4a421f1461083e5780636cfa3b731461086b57806370a082311461088157600080fd5b806323b872dd1161030e578063321f5327116102a1578063594d7c4811610270578063594d7c481461079d5780635c848de4146107b35780635dc5ec86146107c957806360f7de42146107de5780636352211e146107fe57600080fd5b8063321f53271461072657806342842e0e1461075357806354e514e81461077357806358afbec41461078857600080fd5b80632f294f9d116102dd5780632f294f9d146106a65780632f54bf6e146106c657806330176e13146106e657806330b0b5e91461070657600080fd5b806323b872dd1461063257806325d271681461065257806327f3a72a146106725780632a74b4cb1461068657600080fd5b80630b9cd5dc1161039157806313c456df1161036057806313c456df146105bf57806318160ddd146105d45780631b65e4e2146105e95780631c7619de14610609578063228497201461061c57600080fd5b80630b9cd5dc146105275780630c03116e1461053c578063128dc0a014610551578063132e544f1461058157600080fd5b8063081812fc116103cd578063081812fc1461049c578063095ea7b3146104d457806309b09d43146104f457806309e34caa1461051457600080fd5b806301ffc9a7146103ff57806303d07ca91461043457806305b7cdd31461045857806306fdde031461047a575b600080fd5b34801561040b57600080fd5b5061041f61041a366004614ece565b610c4f565b60405190151581526020015b60405180910390f35b34801561044057600080fd5b5061044a600d5481565b60405190815260200161042b565b34801561046457600080fd5b50610478610473366004615181565b610ca1565b005b34801561048657600080fd5b5061048f610cf0565b60405161042b9190615295565b3480156104a857600080fd5b506104bc6104b7366004614f39565b610d82565b6040516001600160a01b03909116815260200161042b565b3480156104e057600080fd5b506104786104ef366004614e83565b610e1c565b34801561050057600080fd5b5061047861050f3660046150ff565b610f44565b61044a61052236600461503e565b611075565b34801561053357600080fd5b50610478611090565b34801561054857600080fd5b5061047861126c565b34801561055d57600080fd5b5061041f61056c366004614f39565b60186020526000908152604090205460ff1681565b34801561058d57600080fd5b5061044a61059c366004614f51565b600b60209081526000938452604080852082529284528284209052825290205481565b3480156105cb57600080fd5b5061047861147a565b3480156105e057600080fd5b50601b5461044a565b3480156105f557600080fd5b50610478610604366004614eac565b611550565b61044a610617366004614f8c565b611600565b34801561062857600080fd5b5061044a600f5481565b34801561063e57600080fd5b5061047861064d366004614d95565b611621565b34801561065e57600080fd5b5061047861066d366004614f39565b611659565b34801561067e57600080fd5b50303161044a565b34801561069257600080fd5b506104786106a1366004614eac565b61175c565b3480156106b257600080fd5b5061044a6106c1366004614d49565b6117ce565b3480156106d257600080fd5b5061041f6106e1366004614d49565b611883565b3480156106f257600080fd5b50610478610701366004614f06565b6118f4565b34801561071257600080fd5b5061044a610721366004614d49565b611969565b34801561073257600080fd5b5061044a610741366004614f39565b600a6020526000908152604090205481565b34801561075f57600080fd5b5061047861076e366004614d95565b611a14565b34801561077f57600080fd5b5061044a611a2f565b34801561079457600080fd5b5061044a611a46565b3480156107a957600080fd5b5061044a600e5481565b3480156107bf57600080fd5b5061044a60115481565b3480156107d557600080fd5b50610478611aa8565b3480156107ea57600080fd5b506104786107f93660046151a2565b611bb2565b34801561080a57600080fd5b506104bc610819366004614f39565b611bf1565b34801561082a57600080fd5b506017546104bc906001600160a01b031681565b34801561084a57600080fd5b5061044a610859366004614d49565b60196020526000908152604090205481565b34801561087757600080fd5b5061044a60105481565b34801561088d57600080fd5b5061044a61089c366004614d49565b611c68565b3480156108ad57600080fd5b5061041f611cef565b3480156108c257600080fd5b50610478611d01565b3480156108d757600080fd5b5061041f611d60565b3480156108ec57600080fd5b5061044a60125481565b34801561090257600080fd5b5061044a7f000000000000000000000000000000000000000000000000000000000000000081565b34801561093657600080fd5b5061044a610945366004614d49565b611d79565b34801561095657600080fd5b5061044a610965366004614eac565b611d84565b34801561097657600080fd5b5061098a610985366004614f39565b611da5565b60405161042b959493929190615248565b3480156109a757600080fd5b5061048f611f8a565b3480156109bc57600080fd5b5061044a60145481565b3480156109d257600080fd5b5061044a6109e1366004614f39565b611f99565b3480156109f257600080fd5b5061044a7f000000000000000000000000000000000000000000000000000000000000000081565b348015610a2657600080fd5b50610478610a35366004614e49565b61200a565b348015610a4657600080fd5b5061044a60165481565b348015610a5c57600080fd5b5061041f610a6b366004614eac565b612100565b348015610a7c57600080fd5b50610a90610a8b366004614f39565b612119565b60405161042b91906153d2565b348015610aa957600080fd5b50610478610ab8366004614dd0565b6123cb565b348015610ac957600080fd5b5061044a60155481565b348015610adf57600080fd5b5061044a60135481565b348015610af557600080fd5b50610478610b04366004614d49565b61240a565b348015610b1557600080fd5b5061044a612453565b348015610b2a57600080fd5b5061044a610b39366004614d49565b612477565b348015610b4a57600080fd5b5061048f610b59366004614f39565b6124f7565b348015610b6a57600080fd5b5061048f612512565b348015610b7f57600080fd5b50610478610b8e366004615181565b61251c565b610478610ba1366004614f39565b612538565b348015610bb257600080fd5b5061041f610bc1366004614d63565b612699565b348015610bd257600080fd5b50610478610be1366004614eac565b6126f9565b348015610bf257600080fd5b5061044a610c01366004615181565b612862565b348015610c1257600080fd5b5061044a6128fd565b348015610c2757600080fd5b5061044a7f000000000000000000000000000000000000000000000000000000000000000081565b60006001600160e01b031982166380ac58cd60e01b1480610c8057506001600160e01b03198216635b5e139f60e01b145b80610c9b57506301ffc9a760e01b6001600160e01b03198316145b92915050565b610ca961290f565b6001600160a01b0316827f86524fd0375a2ead4230f971efd2d7187f65eeb8aaf7a0dbf2d5a22ac1addef383604051610ce491815260200190565b60405180910390a35050565b606060008054610cff9061554f565b80601f0160208091040260200160405190810160405280929190818152602001828054610d2b9061554f565b8015610d785780601f10610d4d57610100808354040283529160200191610d78565b820191906000526020600020905b815481529060010190602001808311610d5b57829003601f168201915b5050505050905090565b6000818152600260205260408120546001600160a01b0316610e005760405162461bcd60e51b815260206004820152602c60248201527f4552433732313a20617070726f76656420717565727920666f72206e6f6e657860448201526b34b9ba32b73a103a37b5b2b760a11b60648201526084015b60405180910390fd5b506000908152600460205260409020546001600160a01b031690565b6000610e2782611bf1565b9050806001600160a01b0316836001600160a01b03161415610e955760405162461bcd60e51b815260206004820152602160248201527f4552433732313a20617070726f76616c20746f2063757272656e74206f776e656044820152603960f91b6064820152608401610df7565b806001600160a01b0316610ea761290f565b6001600160a01b03161480610ec35750610ec381610bc161290f565b610f355760405162461bcd60e51b815260206004820152603860248201527f4552433732313a20617070726f76652063616c6c6572206973206e6f74206f7760448201527f6e6572206e6f7220617070726f76656420666f7220616c6c00000000000000006064820152608401610df7565b610f3f8383612919565b505050565b610f4d84612987565b5060408051602081019091526000808252610f6960018761550c565b9050610f7585836129fd565b610fc15784601b8281548110610f9b57634e487b7160e01b600052603260045260246000fd5b90600052602060002090600602016005019080519060200190610fbf929190614b65565b505b610fcb84836129fd565b6110175783601b8281548110610ff157634e487b7160e01b600052603260045260246000fd5b90600052602060002090600602016003019080519060200190611015929190614b65565b505b61102183836129fd565b61106d5782601b828154811061104757634e487b7160e01b600052603260045260246000fd5b9060005260206000209060060201600401908051906020019061106b929190614b65565b505b505050505050565b6000611085878787878787612a56565b979650505050505050565b61109b6106e1612f12565b6110b75760405162461bcd60e51b8152600401610df7906153ab565b600d546301e13380906110cb9082906154c1565b4210156111565760405162461bcd60e51b815260206004820152604d60248201527f6162616e646f6e20697320706f737369626c65206166746572206f6e6520796560448201527f6172206f6620636f6e7472616374206578697374656e63652066726f6d20646560648201526c706c6f796d656e742074696d6560981b608482015260a401610df7565b600061116061290f565b90506000600660008154811061118657634e487b7160e01b600052603260045260246000fd5b6000918252602090912001546001600160a01b038381169116146111e05760066000815481106111c657634e487b7160e01b600052603260045260246000fd5b6000918252602090912001546001600160a01b0316611218565b600660018154811061120257634e487b7160e01b600052603260045260246000fd5b6000918252602090912001546001600160a01b03165b6001600160a01b0381166000908152601a602052604090205490915060ff161561124457610f3f612f6f565b6001600160a01b0382166000908152601a60205260409020805460ff19166001179055505050565b611274611d60565b6112905760405162461bcd60e51b8152600401610df790615323565b600260095414156112e35760405162461bcd60e51b815260206004820152601f60248201527f5265656e7472616e637947756172643a207265656e7472616e742063616c6c006044820152606401610df7565b600260095560006112f261290f565b905060006112ff82612f9e565b9050600061130c836117ce565b9050600061131984611c68565b90506000831161136b5760405162461bcd60e51b815260206004820181905260248201527f64656e696564203a206e6f207265666c656374696f6e20616c6c6f77616e63656044820152606401610df7565b60008061137786613114565b915091506005811015801561138c5750838111155b6113e45760405162461bcd60e51b815260206004820152602360248201527f63616e74207769746864726177206d6f7265207468616e2068656c6420706978604482015262656c7360e81b6064820152608401610df7565b600182101580156113f55750828211155b61145a5760405162461bcd60e51b815260206004820152603060248201527f5049585320746f6b656e73206d757374206265206f776e656420746f2077697460448201526f34323930bb903932b33632b1ba34b7b760811b6064820152608401610df7565b61146d6001600160a01b03871686613223565b5050600160095550505050565b6114856106e1612f12565b6114a15760405162461bcd60e51b8152600401610df7906153ab565b6114a9611d60565b6114c55760405162461bcd60e51b8152600401610df790615323565b6016546301e13380906114d99082906154c1565b421061154d5760006114ed600230316154d9565b905060005b6002811015610f3f5761153b826006838154811061152057634e487b7160e01b600052603260045260246000fd5b6000918252602090912001546001600160a01b031690613223565b8061154581615584565b9150506114f2565b50565b600061155b83612987565b90506001600160a01b038216158015906115a257506000838152600b602090815260408083206001600160a01b038086168552908352818420908616845290915290205415155b156115d9576000928352600b602090815260408085206001600160a01b039384168652825280852093909216845291909152812055565b6000838152600a602052604090205415610f3f5750506000908152600a6020526040812055565b6000611617868686868661161261290f565b612a56565b9695505050505050565b61163261162c61290f565b8261333c565b61164e5760405162461bcd60e51b8152600401610df79061535a565b610f3f83838361340b565b600061166361290f565b6017549091506001600160a01b038083169116146116c35760405162461bcd60e51b815260206004820152601d60248201527f726573657276656420746f206d61726b6574696e6720706172746e65720000006044820152606401610df7565b6116cb6128fd565b82111561172b5760405162461bcd60e51b815260206004820152602860248201527f6e6f7420656e6f7567682066756e647320617661696c61626c6520666f72206d60448201526761726b6574696e6760c01b6064820152608401610df7565b816011600082825461173d91906154c1565b9091555050601754611758906001600160a01b031683613223565b5050565b60006117696106e161290f565b61177c5761177783836135ab565b611786565b611786838361369d565b905080610f3f5760405162461bcd60e51b81526020600482015260166024820152751c1a5e195b1cc81d1c985b9cd9995c8819985a5b195960521b6044820152606401610df7565b60008060005b601b5481101561187c57836001600160a01b0316601b828154811061180957634e487b7160e01b600052603260045260246000fd5b60009182526020909120600690910201546001600160a01b0316141561186a57601b818154811061184a57634e487b7160e01b600052603260045260246000fd5b9060005260206000209060060201600101548261186791906154c1565b91505b8061187481615584565b9150506117d4565b5092915050565b6000805b6006548110156118ee57826001600160a01b0316600682815481106118bc57634e487b7160e01b600052603260045260246000fd5b6000918252602090912001546001600160a01b031614156118dc57600191505b806118e681615584565b915050611887565b50919050565b6118ff6106e1612f12565b61191b5760405162461bcd60e51b8152600401610df7906153ab565b805161192e906008906020840190614b65565b507fe0b4aa3a614e11365fec002edc82449b5849402d025b31c4770f0e270286e6908160405161195e9190615295565b60405180910390a150565b60006119766106e1612f12565b6119925760405162461bcd60e51b8152600401610df7906153ab565b600061199c612f12565b9050600042826040516020016119ce92919091825260601b6bffffffffffffffffffffffff1916602082015260340190565b60408051601f1981840301815291815281516020928301206001600160a01b03948516600090815260078452828120979095168552959091529091208390555090919050565b610f3f838383604051806020016040528060008152506123cb565b6000601554601454611a41919061550c565b905090565b60008060005b601b548110156118ee57601b8181548110611a7757634e487b7160e01b600052603260045260246000fd5b90600052602060002090600602016001015482611a9491906154c1565b915080611aa081615584565b915050611a4c565b611ab36106e1612f12565b611acf5760405162461bcd60e51b8152600401610df7906153ab565b611ad7611d60565b611af35760405162461bcd60e51b8152600401610df790615323565b6000601354601254611b05919061550c565b905060008111611b7f576040805162461bcd60e51b81526020600482015260248101919091527f63757272656e746c79207468657265206973206e6f20617661696c61626c652060448201527f66756e64732064656469636174656420746f2066696e616c2061756374696f6e6064820152608401610df7565b8060136000828254611b9191906154c1565b9091555061154d905081611ba361290f565b6001600160a01b031690613223565b6000611bbd84612987565b6000948552600b602090815260408087206001600160a01b0393841688528252808720949092168652929092525090912055565b6000818152600260205260408120546001600160a01b031680610c9b5760405162461bcd60e51b815260206004820152602960248201527f4552433732313a206f776e657220717565727920666f72206e6f6e657869737460448201526832b73a103a37b5b2b760b91b6064820152608401610df7565b60006001600160a01b038216611cd35760405162461bcd60e51b815260206004820152602a60248201527f4552433732313a2062616c616e636520717565727920666f7220746865207a65604482015269726f206164647265737360b01b6064820152608401610df7565b506001600160a01b031660009081526003602052604090205490565b60006019611cfb612453565b10905090565b611d0c6106e1612f12565b611d285760405162461bcd60e51b8152600401610df7906153ab565b6000601a6000611d3661290f565b6001600160a01b031681526020810191909152604001600020805460ff1916911515919091179055565b6000611d6a611cef565b80611a41575050601654151590565b6000610c9b82612f9e565b600080611d9084611bf1565b9050611d9d84828561376b565b949350505050565b601b8181548110611db557600080fd5b60009182526020909120600690910201805460018201546003830180546001600160a01b039093169450909291611deb9061554f565b80601f0160208091040260200160405190810160405280929190818152602001828054611e179061554f565b8015611e645780601f10611e3957610100808354040283529160200191611e64565b820191906000526020600020905b815481529060010190602001808311611e4757829003601f168201915b505050505090806004018054611e799061554f565b80601f0160208091040260200160405190810160405280929190818152602001828054611ea59061554f565b8015611ef25780601f10611ec757610100808354040283529160200191611ef2565b820191906000526020600020905b815481529060010190602001808311611ed557829003601f168201915b505050505090806005018054611f079061554f565b80601f0160208091040260200160405190810160405280929190818152602001828054611f339061554f565b8015611f805780601f10611f5557610100808354040283529160200191611f80565b820191906000526020600020905b815481529060010190602001808311611f6357829003601f168201915b5050505050905085565b606060018054610cff9061554f565b60008181526018602052604081205460ff1615611fb857506000919050565b610c9b601b611fc860018561550c565b81548110611fe657634e487b7160e01b600052603260045260246000fd5b906000526020600020906006020160010154600184610c01919061550c565b919050565b61201261290f565b6001600160a01b0316826001600160a01b031614156120735760405162461bcd60e51b815260206004820152601960248201527f4552433732313a20617070726f766520746f2063616c6c6572000000000000006044820152606401610df7565b806005600061208061290f565b6001600160a01b03908116825260208083019390935260409182016000908120918716808252919093529120805460ff1916921515929092179091556120c461290f565b6001600160a01b03167f17307eab39ab6107e8899845ad3d59bd9653f200f220920489ca2b5937696c3183604051610ce4911515815260200190565b60008061210c84612987565b9050611d9d8185856137ba565b61215b6040518060c0016040528060006001600160a01b0316815260200160008152602001606081526020016060815260200160608152602001606081525090565b601b61216860018461550c565b8154811061218657634e487b7160e01b600052603260045260246000fd5b60009182526020918290206040805160c081018252600690930290910180546001600160a01b03168352600181015483850152600281018054835181870281018701855281815294959294938601939283018282801561220557602002820191906000526020600020905b8154815260200190600101908083116121f1575b5050505050815260200160038201805461221e9061554f565b80601f016020809104026020016040519081016040528092919081815260200182805461224a9061554f565b80156122975780601f1061226c57610100808354040283529160200191612297565b820191906000526020600020905b81548152906001019060200180831161227a57829003601f168201915b505050505081526020016004820180546122b09061554f565b80601f01602080910402602001604051908101604052809291908181526020018280546122dc9061554f565b80156123295780601f106122fe57610100808354040283529160200191612329565b820191906000526020600020905b81548152906001019060200180831161230c57829003601f168201915b505050505081526020016005820180546123429061554f565b80601f016020809104026020016040519081016040528092919081815260200182805461236e9061554f565b80156123bb5780601f10612390576101008083540402835291602001916123bb565b820191906000526020600020905b81548152906001019060200180831161239e57829003601f168201915b5050505050815250509050919050565b6123dc6123d661290f565b8361333c565b6123f85760405162461bcd60e51b8152600401610df79061535a565b612404848484846138a9565b50505050565b6124156106e1612f12565b6124315760405162461bcd60e51b8152600401610df7906153ab565b601780546001600160a01b0319166001600160a01b0392909216919091179055565b600061245d611a46565b601454600e5461246d919061550c565b611a41919061550c565b60006124846106e1612f12565b6124a05760405162461bcd60e51b8152600401610df7906153ab565b600760006124ac612f12565b6001600160a01b03166001600160a01b031681526020019081526020016000206000836001600160a01b03166001600160a01b03168152602001908152602001600020549050919050565b6060610c9b612504612512565b61250d846138dc565b6139f6565b6060611a41613b8f565b61252582612987565b506000918252600a602052604090912055565b6002600954141561258b5760405162461bcd60e51b815260206004820152601f60248201527f5265656e7472616e637947756172643a207265656e7472616e742063616c6c006044820152606401610df7565b6002600955600061259a61290f565b905060006125a783611bf1565b9050816001600160a01b0316816001600160a01b031614156125fe5760405162461bcd60e51b815260206004820152601060248201526f31b0b73a10313abc903a379039b2b63360811b6044820152606401610df7565b600061260b84838561376b565b9050600081116126545760405162461bcd60e51b815260206004820152601460248201527350495853206d757374206265206f6e2073616c6560601b6044820152606401610df7565b8034101561266157600080fd5b6126746001600160a01b03831682613223565b61267f8285856137ba565b505050600091825250600a60205260408120556001600955565b60007358807bad0b376efc12f5ad86aac70e78ed67deae6001600160a01b03831614156126c857506001610c9b565b6001600160a01b0380841660009081526005602090815260408083209386168352929052205460ff165b9392505050565b6127046106e1612f12565b6127205760405162461bcd60e51b8152600401610df7906153ab565b600061272a612f12565b6001600160a01b03808216600090815260076020908152604080832093871683529290522054909150801580159061276157508381145b6127f95760405162461bcd60e51b815260206004820152605760248201527f64656e696564203a20612072656c696e71756973686d656e7420746f6b656e2060448201527f6d757374206265207072652d7365742063616c6c696e6720746865207072655460648201527f72616e736665724f776e657273686970206d6574686f64000000000000000000608482015260a401610df7565b61280282613b9e565b61280b83613def565b6001600160a01b03808316600081815260076020908152604080832094881680845294909152808220829055517f8be0079c531659141344cd1fd0a4f28419497f9722a3daafe3b4186f6b6457e09190a350505050565b601b54600090670de0b6b3a76400008261287c858461550c565b9050600082826128ac7f00000000000000000000000000000000000000000000000000000000000000008a6154ed565b6128b691906154ed565b6128c091906154ed565b905060006128cc613e69565b6128d690836154d9565b905083600f54826128e791906154ed565b6128f191906154d9565b98975050505050505050565b6000601154601054611a41919061550c565b6000611a41612f12565b600081815260046020526040902080546001600160a01b0319166001600160a01b038416908117909155819061294e82611bf1565b6001600160a01b03167f8c5be1e5ebec7d5bd14f71427d1e84f3dd0314c0f7b2291e5b200ac8c7c3b92560405160405180910390a45050565b60008061299383611bf1565b905061299d61290f565b6001600160a01b0316816001600160a01b031614610c9b5760405162461bcd60e51b815260206004820152601860248201527f64656e696564203a20746f6b656e206e6f74206f776e656400000000000000006044820152606401610df7565b600081604051602001612a1091906151f9565b6040516020818303038152906040528051906020012083604051602001612a3791906151f9565b6040516020818303038152906040528051906020012014905092915050565b6000816001600160a01b038116612a7f5760405162461bcd60e51b8152600401610df7906152fa565b612a898888613f16565b612a9287614262565b6001600160a01b038316600090815260196020526040812054612ad6907f0000000000000000000000000000000000000000000000000000000000000000906154ed565b90506000612b048a7f00000000000000000000000000000000000000000000000000000000000000006154ed565b9050600081831015612b1f57612b1a838361550c565b612b22565b60005b905060008111612b3d576019612b36612453565b1015612b72565b612b45612453565b612b6f7f0000000000000000000000000000000000000000000000000000000000000000836154d9565b11155b612bb05760405162461bcd60e51b815260206004820152600f60248201526e141a5e195b1cc81cdbdb19081bdd5d608a1b6044820152606401610df7565b80341015612c345760405162461bcd60e51b8152602060048201526044602482018190527f7472616e73666572726564206574682076616c756520697320746f6f206c6f77908201527f20746f2072656365697665207265717565737420616d6f756e74206f6620706960648201526378656c7360e01b608482015260a401610df7565b600080612c41838561550c565b11612c4d576000612c82565b7f0000000000000000000000000000000000000000000000000000000000000000612c78838561550c565b612c8291906154d9565b90508015612cb8576001600160a01b03871660009081526019602052604081208054839290612cb290849061550c565b90915550505b60006040518060c00160405280896001600160a01b031681526020018e81526020018d81526020018c81526020018b81526020018a8152509050612cfb8361478f565b15612f01576000612d0a6148a1565b9050612d1689826148b2565b601b805460018101825560009190915282517f3ad8aa4f87544323a9d1e5dd902f40c356527a7955687113db5f9a85ad579dc1600690920291820180546001600160a01b0319166001600160a01b039092169190911781556020808501517f3ad8aa4f87544323a9d1e5dd902f40c356527a7955687113db5f9a85ad579dc2840155604085015180518694612dd1937f3ad8aa4f87544323a9d1e5dd902f40c356527a7955687113db5f9a85ad579dc3909101920190614be9565b5060608201518051612ded916003840191602090910190614b65565b5060808201518051612e09916004840191602090910190614b65565b5060a08201518051612e25916005840191602090910190614b65565b5050600c805491506000612e3883615584565b9091555060009050612e4a853461550c565b90508015612ede57612e5a61290f565b6001600160a01b03166108fc829081150290604051600060405180830381858888f19350505050158015612e92573d6000803e3d6000fd5b50612e9b61290f565b6001600160a01b03167fd7dee2702d63ad89917b6a4da9981c90c4d24f8c2bdfd64c604ecae57d8d065182604051612ed591815260200190565b60405180910390a25b612ee6611cef565b15612ef357612ef3612f6f565b509650612f07945050505050565b50505050505b509695505050505050565b600033301415612f6957600080368080601f0160208091040260200160405190810160405280939291908181526020018383808284376000920191909152505050503601516001600160a01b03169150612f6c9050565b50335b90565b426016556040517f3255a55e897309e68de5c3046cf65e022034fb1e3e0f25395c8395189663066e90600090a1565b601b54600090670de0b6b3a76400008280612fb7613e69565b905060005b84811015613109576000612fd18260016154c1565b9050876001600160a01b0316601b8381548110612ffe57634e487b7160e01b600052603260045260246000fd5b60009182526020909120600690910201546001600160a01b0316148015613034575060008181526018602052604090205460ff16155b156130f6576000613045838861550c565b9050600086827f0000000000000000000000000000000000000000000000000000000000000000601b878154811061308d57634e487b7160e01b600052603260045260246000fd5b9060005260206000209060060201600101546130a991906154ed565b6130b391906154ed565b6130bd91906154ed565b905060006130cb86836154d9565b905087600f54826130dc91906154ed565b6130e691906154d9565b6130f090886154c1565b96505050505b508061310181615584565b915050612fbc565b509095945050505050565b60008060008060005b601b548110156132185760006131348260016154c1565b9050866001600160a01b0316601b838154811061316157634e487b7160e01b600052603260045260246000fd5b60009182526020909120600690910201546001600160a01b0316148015613197575060008181526018602052604090205460ff16155b15613205576000818152601860205260409020805460ff191660019081179091556131c290856154c1565b9350601b82815481106131e557634e487b7160e01b600052603260045260246000fd5b9060005260206000209060060201600101548361320291906154c1565b92505b508061321081615584565b91505061311d565b509094909350915050565b804710156132735760405162461bcd60e51b815260206004820152601d60248201527f416464726573733a20696e73756666696369656e742062616c616e63650000006044820152606401610df7565b6000826001600160a01b03168260405160006040518083038185875af1925050503d80600081146132c0576040519150601f19603f3d011682016040523d82523d6000602084013e6132c5565b606091505b5050905080610f3f5760405162461bcd60e51b815260206004820152603a60248201527f416464726573733a20756e61626c6520746f2073656e642076616c75652c207260448201527f6563697069656e74206d617920686176652072657665727465640000000000006064820152608401610df7565b6000818152600260205260408120546001600160a01b03166133b55760405162461bcd60e51b815260206004820152602c60248201527f4552433732313a206f70657261746f7220717565727920666f72206e6f6e657860448201526b34b9ba32b73a103a37b5b2b760a11b6064820152608401610df7565b60006133c083611bf1565b9050806001600160a01b0316846001600160a01b031614806133fb5750836001600160a01b03166133f084610d82565b6001600160a01b0316145b80611d9d5750611d9d8185612699565b826001600160a01b031661341e82611bf1565b6001600160a01b0316146134865760405162461bcd60e51b815260206004820152602960248201527f4552433732313a207472616e73666572206f6620746f6b656e2074686174206960448201526839903737ba1037bbb760b91b6064820152608401610df7565b6001600160a01b0382166134e85760405162461bcd60e51b8152602060048201526024808201527f4552433732313a207472616e7366657220746f20746865207a65726f206164646044820152637265737360e01b6064820152608401610df7565b6134f3600082612919565b6001600160a01b038316600090815260036020526040812080546001929061351c90849061550c565b90915550506001600160a01b038216600090815260036020526040812080546001929061354a9084906154c1565b909155505060008181526002602052604080822080546001600160a01b0319166001600160a01b0386811691821790925591518493918716917fddf252ad1be2c89b69c2b068fc378daa952ba7f163c4a11628f55a4df523b3ef91a4505050565b6000806135b661290f565b6001600160a01b0381166000908152601960205260409020549091508411156136395760405162461bcd60e51b815260206004820152602f60248201527f706978656c73207472616e736665722064656e696564203a20706978656c732060448201526e62616c616e636520746f6f206c6f7760881b6064820152608401610df7565b6001600160a01b0381166000908152601960205260408120805486929061366190849061550c565b90915550506001600160a01b0383166000908152601960205260408120805486929061368e9084906154c1565b90915550600195945050505050565b60006136a7611a2f565b83111561371e576040805162461bcd60e51b81526020600482015260248101919091527f706978656c73207472616e736665722066726f6d206f776e65722064656e696560448201527f64203a206f776e657220706978656c732062616c616e636520746f6f206c6f776064820152608401610df7565b826015600082825461373091906154c1565b90915550506001600160a01b0382166000908152601960205260408120805485929061375d9084906154c1565b909155506001949350505050565b6000838152600a6020908152604080832054600b83528184206001600160a01b0380881686529084528285209086168552909252822054801515806137b05782611085565b5095945050505050565b6000816001600160a01b0381166137e35760405162461bcd60e51b8152600401610df7906152fa565b6001600160a01b038516601b6137fa60018761550c565b8154811061381857634e487b7160e01b600052603260045260246000fd5b60009182526020909120600690910201546001600160a01b031614156138935782601b61384660018761550c565b8154811061386457634e487b7160e01b600052603260045260246000fd5b6000918252602090912060069091020180546001600160a01b0319166001600160a01b03929092169190911790555b61389e85848661340b565b506001949350505050565b6138b484848461340b565b6138c0848484846149f4565b6124045760405162461bcd60e51b8152600401610df7906152a8565b6060816139005750506040805180820190915260018152600360fc1b602082015290565b8160005b811561392a578061391481615584565b91506139239050600a836154d9565b9150613904565b60008167ffffffffffffffff81111561395357634e487b7160e01b600052604160045260246000fd5b6040519080825280601f01601f19166020018201604052801561397d576020820181803683370190505b5090505b8415611d9d5761399260018361550c565b915061399f600a8661559f565b6139aa9060306154c1565b60f81b8183815181106139cd57634e487b7160e01b600052603260045260246000fd5b60200101906001600160f81b031916908160001a9053506139ef600a866154d9565b9450613981565b8051825160609184918491600091613a0e91906154c1565b67ffffffffffffffff811115613a3457634e487b7160e01b600052604160045260246000fd5b6040519080825280601f01601f191660200182016040528015613a5e576020820181803683370190505b509050806000805b8551811015613af257858181518110613a8f57634e487b7160e01b600052603260045260246000fd5b01602001516001600160f81b0319168383613aa981615584565b945081518110613ac957634e487b7160e01b600052603260045260246000fd5b60200101906001600160f81b031916908160001a90535080613aea81615584565b915050613a66565b5060005b8451811015613b8257848181518110613b1f57634e487b7160e01b600052603260045260246000fd5b01602001516001600160f81b0319168383613b3981615584565b945081518110613b5957634e487b7160e01b600052603260045260246000fd5b60200101906001600160f81b031916908160001a90535080613b7a81615584565b915050613af6565b5090979650505050505050565b606060088054610cff9061554f565b806001600160a01b038116613bc55760405162461bcd60e51b8152600401610df7906152fa565b613bce82611883565b613c1a5760405162461bcd60e51b815260206004820152601760248201527f61646472657373206973206e6f7420616e206f776e65720000000000000000006044820152606401610df7565b600654600090613c2c9060019061550c565b905060005b600654811015613d9d57836001600160a01b031660068281548110613c6657634e487b7160e01b600052603260045260246000fd5b6000918252602090912001546001600160a01b03161415613d8b576006548110613c905750505050565b805b600654613ca19060019061550c565b811015613d48576006613cb58260016154c1565b81548110613cd357634e487b7160e01b600052603260045260246000fd5b600091825260209091200154600680546001600160a01b039092169183908110613d0d57634e487b7160e01b600052603260045260246000fd5b600091825260209091200180546001600160a01b0319166001600160a01b039290921691909117905580613d4081615584565b915050613c92565b506006805480613d6857634e487b7160e01b600052603160045260246000fd5b600082815260209020810160001990810180546001600160a01b03191690550190555b80613d9581615584565b915050613c31565b506006548114610f3f5760405162461bcd60e51b815260206004820152601860248201527f6f776e65722063616e206e6f742062652072656d6f76656400000000000000006044820152606401610df7565b806001600160a01b038116613e165760405162461bcd60e51b8152600401610df7906152fa565b50600680546001810182556000919091527ff652222313e28459528d920b65115c16c04f3efc82aaedc97be59f3f377c0d3f0180546001600160a01b0319166001600160a01b0392909216919091179055565b601b5460009081805b8281101561187c576000613e86828561550c565b90506000817f0000000000000000000000000000000000000000000000000000000000000000601b8581548110613ecd57634e487b7160e01b600052603260045260246000fd5b906000526020600020906006020160010154613ee991906154ed565b613ef391906154ed565b9050613eff81856154c1565b935050508080613f0e90615584565b915050613e72565b600081600181518110613f3957634e487b7160e01b600052603260045260246000fd5b602002602001015182600381518110613f6257634e487b7160e01b600052603260045260246000fd5b6020026020010151613f74919061550c565b82600081518110613f9557634e487b7160e01b600052603260045260246000fd5b602002602001015183600281518110613fbe57634e487b7160e01b600052603260045260246000fd5b6020026020010151613fd0919061550c565b613fda91906154ed565b90508281146140625760405162461bcd60e51b815260206004820152604860248201527f64656e696564203a20636f6f7264696e6174657320706978656c7320636f756e60448201527f74206d75737420626520657175616c20746f206f72646572656420706978656c6064820152671cc8185b5bdd5b9d60c21b608482015260a401610df7565b7f00000000000000000000000000000000000000000000000000000000000000008310156140f85760405162461bcd60e51b815260206004820152603d60248201527f6d696e696d756d20706978656c7320616d6f756e7420746f207075726368617360448201527f65206d7573742062652067726561746572206f7220657175616c2032350000006064820152608401610df7565b7f00000000000000000000000000000000000000000000000000000000000000008260008151811061413a57634e487b7160e01b600052603260045260246000fd5b60200260200101518360028151811061416357634e487b7160e01b600052603260045260246000fd5b6020026020010151614175919061550c565b101580156141fe57507f0000000000000000000000000000000000000000000000000000000000000000826001815181106141c057634e487b7160e01b600052603260045260246000fd5b6020026020010151836003815181106141e957634e487b7160e01b600052603260045260246000fd5b60200260200101516141fb919061550c565b10155b610f3f5760405162461bcd60e51b815260206004820152602f60248201527f64656e696564203a206d696e696d756d20636f6f7264696e61746573206c656e60448201526e0cee8d040daeae6e840c4ca406ae0f608b1b6064820152608401610df7565b60008160008151811061428557634e487b7160e01b600052603260045260246000fd5b602002602001015190506000826001815181106142b257634e487b7160e01b600052603260045260246000fd5b602002602001015190506000836002815181106142df57634e487b7160e01b600052603260045260246000fd5b6020026020010151905060008460038151811061430c57634e487b7160e01b600052603260045260246000fd5b60200260200101519050600060059050846000148061432b5750808510155b801561433f575083158061433f5750808410155b801561436c575080831015801561436c575082610f00148061436c575061436881610f0061550c565b8311155b80156143995750808210158015614399575081610870148061439957506143958161087061550c565b8211155b6143fd5760405162461bcd60e51b815260206004820152602f60248201527f6d617020626f7264657273206f766572666c6f77206f72206e6f7420656e6f7560448201526e0ced040e6e0c2c6ca40decc406ae0f608b1b6064820152608401610df7565b60005b601b5481101561106b576000601b828154811061442d57634e487b7160e01b600052603260045260246000fd5b906000526020600020906006020160020180548060200260200160405190810160405280929190818152602001828054801561448857602002820191906000526020600020905b815481526020019060010190808311614474575b50505050509050600083826002815181106144b357634e487b7160e01b600052603260045260246000fd5b60200260200101516144c5919061550c565b881480614504575083826000815181106144ef57634e487b7160e01b600052603260045260246000fd5b602002602001015161450191906154c1565b86145b806145415750838260038151811061452c57634e487b7160e01b600052603260045260246000fd5b602002602001015161453e919061550c565b87145b8061457e5750838260018151811061456957634e487b7160e01b600052603260045260246000fd5b602002602001015161457b91906154c1565b85145b905060008161464e57826000815181106145a857634e487b7160e01b600052603260045260246000fd5b6020026020010151891080156145e55750826000815181106145da57634e487b7160e01b600052603260045260246000fd5b602002602001015187115b8061464957508260008151811061460c57634e487b7160e01b600052603260045260246000fd5b60200260200101518711801561464957508260028151811061463e57634e487b7160e01b600052603260045260246000fd5b602002602001015189105b614651565b60005b905080156147795760008360018151811061467c57634e487b7160e01b600052603260045260246000fd5b6020026020010151891180156146b95750836003815181106146ae57634e487b7160e01b600052603260045260246000fd5b602002602001015187105b8061471d5750836001815181106146e057634e487b7160e01b600052603260045260246000fd5b60200260200101518711801561471d57508360038151811061471257634e487b7160e01b600052603260045260246000fd5b602002602001015189105b905080156147775760405162461bcd60e51b815260206004820152602160248201527f64656e696564203a20706978656c7320706f736974696f6e20636f6e666c69636044820152601d60fa1b6064820152608401610df7565b505b505050808061478790615584565b915050614400565b600081303110156147ed5760405162461bcd60e51b815260206004820152602260248201527f636f6e74726163742062616c616e636520746f6f206c6f7720746f2073707265604482015261185960f21b6064820152608401610df7565b60006147fa836001614afd565b905060005b60028110156148495761483761481683601e6154ed565b6006838154811061152057634e487b7160e01b600052603260045260246000fd5b8061484181615584565b9150506147ff565b506148558160226154ed565b600f600082825461486691906154c1565b9091555061487790508160056154ed565b6010600082825461488891906154c1565b92505081905550806012600082825461375d91906154c1565b6000600c546001611a4191906154c1565b6001600160a01b0382166149085760405162461bcd60e51b815260206004820181905260248201527f4552433732313a206d696e7420746f20746865207a65726f20616464726573736044820152606401610df7565b6000818152600260205260409020546001600160a01b03161561496d5760405162461bcd60e51b815260206004820152601c60248201527f4552433732313a20746f6b656e20616c7265616479206d696e746564000000006044820152606401610df7565b6001600160a01b03821660009081526003602052604081208054600192906149969084906154c1565b909155505060008181526002602052604080822080546001600160a01b0319166001600160a01b03861690811790915590518392907fddf252ad1be2c89b69c2b068fc378daa952ba7f163c4a11628f55a4df523b3ef908290a45050565b60006001600160a01b0384163b1561389e57836001600160a01b031663150b7a02614a1d61290f565b8786866040518563ffffffff1660e01b8152600401614a3f9493929190615215565b602060405180830381600087803b158015614a5957600080fd5b505af1925050508015614a89575060408051601f3d908101601f19168201909252614a8691810190614eea565b60015b614ae3573d808015614ab7576040519150601f19603f3d011682016040523d82523d6000602084013e614abc565b606091505b508051614adb5760405162461bcd60e51b8152600401610df7906152a8565b805181602001fd5b6001600160e01b031916630a85bd0160e11b149050611d9d565b600060648210614b4f5760405162461bcd60e51b815260206004820152601760248201527f626164206672616374696f6e2070657263656e746167650000000000000000006044820152606401610df7565b81614b5b6064856154d9565b6126f291906154ed565b828054614b719061554f565b90600052602060002090601f016020900481019282614b935760008555614bd9565b82601f10614bac57805160ff1916838001178555614bd9565b82800160010185558215614bd9579182015b82811115614bd9578251825591602001919060010190614bbe565b50614be5929150614c23565b5090565b828054828255906000526020600020908101928215614bd95791602002820182811115614bd9578251825591602001919060010190614bbe565b5b80821115614be55760008155600101614c24565b600067ffffffffffffffff831115614c5257614c526155df565b614c65601f8401601f1916602001615490565b9050828152838383011115614c7957600080fd5b828260208301376000602084830101529392505050565b80356001600160a01b038116811461200557600080fd5b600082601f830112614cb7578081fd5b8135602067ffffffffffffffff821115614cd357614cd36155df565b8160051b614ce2828201615490565b838152828101908684018388018501891015614cfc578687fd5b8693505b85841015614d1e578035835260019390930192918401918401614d00565b50979650505050505050565b600082601f830112614d3a578081fd5b6126f283833560208501614c38565b600060208284031215614d5a578081fd5b6126f282614c90565b60008060408385031215614d75578081fd5b614d7e83614c90565b9150614d8c60208401614c90565b90509250929050565b600080600060608486031215614da9578081fd5b614db284614c90565b9250614dc060208501614c90565b9150604084013590509250925092565b60008060008060808587031215614de5578081fd5b614dee85614c90565b9350614dfc60208601614c90565b925060408501359150606085013567ffffffffffffffff811115614e1e578182fd5b8501601f81018713614e2e578182fd5b614e3d87823560208401614c38565b91505092959194509250565b60008060408385031215614e5b578182fd5b614e6483614c90565b915060208301358015158114614e78578182fd5b809150509250929050565b60008060408385031215614e95578182fd5b614e9e83614c90565b946020939093013593505050565b60008060408385031215614ebe578182fd5b82359150614d8c60208401614c90565b600060208284031215614edf578081fd5b81356126f2816155f5565b600060208284031215614efb578081fd5b81516126f2816155f5565b600060208284031215614f17578081fd5b813567ffffffffffffffff811115614f2d578182fd5b611d9d84828501614d2a565b600060208284031215614f4a578081fd5b5035919050565b600080600060608486031215614f65578081fd5b83359250614f7560208501614c90565b9150614f8360408501614c90565b90509250925092565b600080600080600060a08688031215614fa3578283fd5b85359450602086013567ffffffffffffffff80821115614fc1578485fd5b614fcd89838a01614ca7565b95506040880135915080821115614fe2578485fd5b614fee89838a01614d2a565b94506060880135915080821115615003578283fd5b61500f89838a01614d2a565b93506080880135915080821115615024578283fd5b5061503188828901614d2a565b9150509295509295909350565b60008060008060008060c08789031215615056578384fd5b86359550602087013567ffffffffffffffff80821115615074578586fd5b6150808a838b01614ca7565b96506040890135915080821115615095578586fd5b6150a18a838b01614d2a565b955060608901359150808211156150b6578283fd5b6150c28a838b01614d2a565b945060808901359150808211156150d7578283fd5b506150e489828a01614d2a565b9250506150f360a08801614c90565b90509295509295509295565b60008060008060808587031215615114578182fd5b84359350602085013567ffffffffffffffff80821115615132578384fd5b61513e88838901614d2a565b94506040870135915080821115615153578384fd5b61515f88838901614d2a565b93506060870135915080821115615174578283fd5b50614e3d87828801614d2a565b60008060408385031215615193578182fd5b50508035926020909101359150565b6000806000606084860312156151b6578081fd5b8335925060208401359150614f8360408501614c90565b600081518084526151e5816020860160208601615523565b601f01601f19169290920160200192915050565b6000825161520b818460208701615523565b9190910192915050565b6001600160a01b0385811682528416602082015260408101839052608060608201819052600090611617908301846151cd565b60018060a01b038616815284602082015260a06040820152600061526f60a08301866151cd565b828103606084015261528181866151cd565b905082810360808401526128f181856151cd565b6020815260006126f260208301846151cd565b60208082526032908201527f4552433732313a207472616e7366657220746f206e6f6e20455243373231526560408201527131b2b4bb32b91034b6b83632b6b2b73a32b960711b606082015260800190565b6020808252600f908201526e696e76616c6964206164647265737360881b604082015260600190565b6020808252601b908201527f7265666c656374696f6e206d7573742062652072656c65617365640000000000604082015260600190565b60208082526031908201527f4552433732313a207472616e736665722063616c6c6572206973206e6f74206f6040820152701ddb995c881b9bdc88185c1c1c9bdd9959607a1b606082015260800190565b6020808252600d908201526c1858d8d95cdcc819195b9a5959609a1b604082015260600190565b602080825282516001600160a01b0316828201528281015160408084019190915283015160c06060840152805160e084018190526000929182019083906101008601905b808310156154365783518252928401926001929092019190840190615416565b5060608701519350601f1992508286820301608087015261545781856151cd565b935050506080850151818584030160a086015261547483826151cd565b92505060a0850151818584030160c086015261161783826151cd565b604051601f8201601f1916810167ffffffffffffffff811182821017156154b9576154b96155df565b604052919050565b600082198211156154d4576154d46155b3565b500190565b6000826154e8576154e86155c9565b500490565b6000816000190483118215151615615507576155076155b3565b500290565b60008282101561551e5761551e6155b3565b500390565b60005b8381101561553e578181015183820152602001615526565b838111156124045750506000910152565b600181811c9082168061556357607f821691505b602082108114156118ee57634e487b7160e01b600052602260045260246000fd5b6000600019821415615598576155986155b3565b5060010190565b6000826155ae576155ae6155c9565b500690565b634e487b7160e01b600052601160045260246000fd5b634e487b7160e01b600052601260045260246000fd5b634e487b7160e01b600052604160045260246000fd5b6001600160e01b03198116811461154d57600080fdfea2646970667358221220190dda4d80cf0f8513d1a26a8babb6d19236fb6eb127623259d1d1231684c77e64736f6c63430008040033",
  "immutableReferences": {
    "526": [
      {
        "length": 32,
        "start": 2312
      },
      {
        "length": 32,
        "start": 16484
      }
    ],
    "530": [
      {
        "length": 32,
        "start": 2552
      },
      {
        "length": 32,
        "start": 16634
      },
      {
        "length": 32,
        "start": 16768
      }
    ],
    "538": [
      {
        "length": 32,
        "start": 3117
      },
      {
        "length": 32,
        "start": 10375
      },
      {
        "length": 32,
        "start": 10929
      },
      {
        "length": 32,
        "start": 10976
      },
      {
        "length": 32,
        "start": 11082
      },
      {
        "length": 32,
        "start": 11343
      },
      {
        "length": 32,
        "start": 12365
      },
      {
        "length": 32,
        "start": 16013
      }
    ]
  },
  "source": "pragma solidity ^0.8.0;\n\nimport \"./PIXSMarket.sol\";\n\n/**                         \n * @title Pixsale\n * @author Mathieu L\n * @dev Established on JUNE 23rd, 2021    \n * @dev Deployed with solc version 0.8.4\n * @dev Contact us at go@pixsale.io                                  \n*/\ncontract Pixsale is PIXSMarket {\n    using Address for address payable;\n\n    /// @notice PIXS token properties\n    struct PIXS {\n        /// @dev address of owner\n        address owner; \n        /// @dev total number of pixels used\n        uint pixels;\n        /// @dev position of the image fetched at `link` : left, top, right, bottom\n        uint[] coords;       \n        /// @dev url address pointing to an image\n        string image;\n        /// @dev url pointing to a website\n        string link;\n        /// @dev title and description \n        /// @notice format must contains a coma(,) \n        /// ex.:  My Project, catch phrase for my project\n        string titledDescription;\n    }\n\n    /// @notice Token ids counter\n    uint internal lastTokenId;\n\n    /// @notice Date of birth of the smart-contract\n    uint public birthTime;\n\n    /// @notice Minimum pixel amount to purchase\n    /// @dev PIXS tokens minimum pixels amount must be greater or equal 5px\n    /// @dev value is immutable and can not be changed\n    uint public immutable minimumPixelsAmount = 25;\n\n    /// @notice Minimum pixel length\n    /// @dev PIXS tokens widths and heights must be greater or equal 5px\n    /// @dev value is immutable and can not be changed\n    uint public immutable minimumPixelsLength = 5;\n    \n    /// @notice Total supply of available pixels\n    uint public totalPixels = 8294400;\n    \n    /// @notice BNB price 0.0015 BNB / pixel\n    uint public immutable pixelPrice = 1500000000000000;\n\n    /// @notice Total Reflection to distribute among all holders prorata to the ratio totalPixels / balance\n    uint public totalReflection;\n\n    /// @dev TODO : Allow com wallet to withdraw in totalCom\n    /// @notice Total received value dedicated to communication / marketing \n    uint public totalCom;\n\n    /// @notice Total that has been withdrawn by marketing partner\n    uint public totalComWithdrawn;\n\n    /// @notice Total received value dedicated to final auction of the artwork\n    uint public totalAuction;\n\n    /// @notice Total that has been withdrawn from auction part\n    uint public totalAuctionWithdrawn;\n\n    /// @notice Total amount of pixels reserved to team members\n    uint public teamPixelsSupply;\n\n    /// @notice Total amount of pixels owners have gaveaway\n    uint public totalPixelsGaveway;\n\n    /// @notice Reflection release date\n    uint public reflectionReleaseTimestamp;\n\n    /// @notice Communication / Marketing partner wallet\n    address public comWallet;\n\n    /// @notice Track reflection withdraws\n    /// @dev tokenId => boolean\n    mapping (uint => bool) public reflectionWithdrawn;\n\n    /// @notice Total number of pixels held from a giveaway\n    mapping(address => uint) public pixelsBalance;\n\n    /// @notice Signature for agreement between owners to abandon the project and release the reflection\n    /// @dev Settable from one year after contract deployment\n    mapping (address => bool) internal abandonOwnersSignatures;\n\n    /// @notice all PIXS tokens\n    PIXS[] public pixs;\n\n\n    event Refunded(address indexed orderer, uint refundAmount);\n    event ReflectionIsReleased();\n\n    /// @dev Pixsale construction\n    /// @param _owners : array of 2 addresses for shared ownership\n    constructor(\n        address[] memory _owners, \n        string memory baseTokenURI\n    ) PIXSMarket(_owners) {\n\n        // set base token uri\n        _baseTokenURI = baseTokenURI;\n\n        // reserve team pixels part\n        teamPixelsSupply = 294400;\n\n        // set contract birth date\n        birthTime = block.timestamp;\n    }\n\n    modifier reflectionIsReleased() {\n        require(\n            reflectionReleased(),\n            'reflection must be released'\n        );\n        _;\n    }\n\n    /**\n    * Override isApprovedForAll to whitelist user's OpenSea proxy accounts to enable gas-less listings.\n    */\n    function isApprovedForAll(\n        address owner,\n        address operator\n    )\n    public override\n    view\n    returns (bool)\n    {\n        // Whitelist OpenSea proxy contract for easy trading.\n        if (address(0x58807baD0B376efc12F5AD86aAc70E78ed67deaE) == operator) {\n            return true;\n        }\n        return ERC721.isApprovedForAll(owner, operator);\n    }\n\n    function setComWallet(address _comAccount) public onlyOwner {\n        comWallet = _comAccount;\n    }\n\n    function totalComAvailable() public view returns(uint ttlComAvail) {\n        ttlComAvail = totalCom - totalComWithdrawn;\n    }\n\n    /// @notice Allow owners to withdraw the allocation of 1% dedicated to final artwork auction\n    /// @notice funds are handled by owners in order to be able to pay the chosen art gallery with fiat\n    function auctionWithdraw() public onlyOwner reflectionIsReleased {\n        uint availableAuctionPart = totalAuction - totalAuctionWithdrawn;\n        require(availableAuctionPart > 0, 'currently there is no available funds dedicated to final auction');\n\n        totalAuctionWithdrawn += availableAuctionPart;\n        payable(_msgSender()).sendValue(availableAuctionPart);\n    }\n\n    /// @notice Allow marketing/com partner to withdraw its allocation of 5%\n    function comPartnerWithdraw(uint _amount) public {\n        address sender = _msgSender();\n        require(address(sender) == address(comWallet), 'reserved to marketing partner');\n        require(_amount <= totalComAvailable(), 'not enough funds available for marketing');\n\n        totalComWithdrawn += _amount;\n        payable(address(comWallet)).sendValue(_amount);\n\n    }\n\n    /// @dev Returns the total amount of pixels that owners have gaveaway\n    function availableGivewayPixels() public view returns(uint aGiveawayPixels) {\n        aGiveawayPixels = (teamPixelsSupply - totalPixelsGaveway);\n    }\n\n    /// @dev Transfer pixels from owner\n    function _giveawayPixelsFromOwner(uint amount, address account) internal returns(bool trfFromOwner) {\n\n        require(\n            amount <= availableGivewayPixels(), \n            'pixels transfer from owner denied : owner pixels balance too low'\n        );\n\n        totalPixelsGaveway += amount;\n        pixelsBalance[account] += amount;\n        \n        return true;\n    }\n\n    /// @dev Transfer pixels for non-owners\n    function _transferPixels(uint amount, address account) internal returns(bool pixelsTrf) {\n        address sender = _msgSender();\n        \n        require(pixelsBalance[sender] >= amount, 'pixels transfer denied : pixels balance too low');\n        \n        pixelsBalance[sender] -= amount;\n        pixelsBalance[account] += amount;\n\n        return true;\n    }\n\n    /// @dev Pixels holders can transfer pixels\n    function transferPixels(uint amount, address account) public {\n        \n\n        // transfer pixels\n        bool trf = isOwner(_msgSender())\n        ? _giveawayPixelsFromOwner(amount, account)\n        : _transferPixels(amount, account);\n\n        require(trf, 'pixels transfer failed');\n    }\n    \n    /// @dev Get the next available tokenId\n    function nextId() internal view returns(uint nId) {\n        nId = lastTokenId + 1;\n    }\n\n    /// @dev Get a fraction of a number from a percentage value (0-100)\n    function fraction(uint amount, uint _percentage) internal pure returns(uint per) {\n        require(_percentage < 100, 'bad fraction percentage');\n        per = (amount / 100) * _percentage;\n    }\n\n    /// @dev Get one PIXS token from its id\n    function getPixs(uint tokenId) public view returns(PIXS memory _pixs) {\n        _pixs = pixs[tokenId-1];\n    }\n\n    /// @dev Get the total supply of PIXS NFT tokens\n    function totalSupply() public view returns(uint tSupply) {\n        tSupply = pixs.length;\n    } \n\n    /// @dev Get the total number of PIXS token that have been sold / consumed\n    function soldPixels() public view returns(uint totalPixelsSold) {\n        uint totalSold;\n        for (uint i = 0; i < pixs.length; i++) {\n            // PIXS memory _pixs = pixs[i];\n            totalSold += pixs[i].pixels;\n        }\n        totalPixelsSold = totalSold;\n    }\n\n    function availablePixels() public view returns(uint totalPixelsAvailable) {\n        totalPixelsAvailable = totalPixels - teamPixelsSupply - soldPixels();\n    }\n\n    /// @dev Check that the number of `_pixels` equals the number of pixels computed from `_coords` values\n    function consistentCoords(uint _pixels, uint[] memory _coords) internal pure {\n        uint pixels = (\n            (_coords[2] - _coords[0])\n            * (_coords[3] - _coords[1])\n        );\n\n        require(pixels == _pixels, 'denied : coordinates pixels count must be equal to ordered pixels amount');\n\n        // check that minimum amount of pixels is respected\n        require(_pixels >= minimumPixelsAmount, 'minimum pixels amount to purchase must be greater or equal 25');\n        // check that minimum amount of pixels on each length respects the preset `minimumPixelsLength`\n        require(\n            (\n                ((_coords[2] - _coords[0]) >= minimumPixelsLength)\n                && ((_coords[3] - _coords[1]) >= minimumPixelsLength)\n            ),\n            'denied : minimum coordinates length must be 5px'\n        );\n    }\n\n    /// @dev Check pixels superposition with existing PIXS occupied space \n    function mapConflict(uint[] memory _coords) internal view {\n        uint l = _coords[0]; \n        uint t = _coords[1]; \n        uint r = _coords[2]; \n        uint b = _coords[3];\n\n        uint _limit = 5;\n\n        // look for 4K map borders overflow (3840 x 2160 pixels) and check that space from nearest boundary is min 5 or 0\n        require(\n            (\n                ((l == 0) || (l >= _limit)) \n                && ((t == 0) || (t >= _limit)) \n                && (\n                    r >= _limit\n                    && ((r == 3840) || (r <= (3840-_limit)))\n                )\n                && (\n                    b >= _limit\n                    && ((b == 2160) || (b <= (2160-_limit)))\n                )\n            ),\n            'map borders overflow or not enough space of 5px'\n        );\n\n        // check that there is no conflict with existing coordinates\n        uint i;\n        for (i = 0; i < pixs.length; i++) {\n\n            // PIXS memory _pixs = pixs[i];\n            uint[] memory eCoords = pixs[i].coords;\n\n            bool isOnLimit = (\n                (l == (eCoords[2]-_limit)) \n                || (r == (eCoords[0]+_limit))\n                || (t == (eCoords[3]-_limit))\n                || (b == (eCoords[1]+_limit))\n            );\n            \n            // check conflict on X axis\n            bool xConflict = (\n                (\n                    isOnLimit \n                    ? false\n                    : (\n                        // L: left, R: right, n: new, e: existing\n                        // nL < eL && nR > eL \n                        ((l < eCoords[0]) && (r > eCoords[0]))\n                        // nR > eL && nL < eR\n                        || ((r > eCoords[0]) && (l < eCoords[2]))     \n                    )\n                )\n               \n            );\n            \n            /// example :\n            // EXISTING:       L    T   R    B\n            //              [ 10, 20, 110, 120 ]\n            // new:            l    t    r    b\n            //              [ 10, 120, 110, 220 ]\n            if (xConflict) {\n                // and conflict on Y \n                bool yConflict = (\n                    // T: top, B: bottom, n: new, e: existing\n                    //     nT > eT && nB < eB\n                    ((t > eCoords[1]) && ((b < eCoords[3])))\n                    //  || nB > eT && nT < eB\n                    || ((b > eCoords[1]) && (t < eCoords[3]))\n                );\n\n                require(!yConflict, 'denied : pixels position conflict');\n            }\n        }\n    }\n\n    /// @dev Spread NFT value according to the rules\n    /// @notice Distribution is organised as follow :\n    /// - 30% to owner 1\n    /// - 30% to owner 2\n    /// - 5% to com\n    /// - 1% to final auction\n    /// - 34% to total reflection distributed among holders according to Pixsale reflection rules (dont 4% pour la reflection influenceurs (giveway pixels))\n    function spreadEthValue(uint _value) internal returns (bool trfok) {\n        require(thisBalance() >= _value, 'contract balance too low to spread');\n\n        uint onePerc = fraction(_value, 1);\n\n        // to owners\n        for (uint i = 0; i < 2; i++) {\n            // to contract balance : use ownersWithdraw\n            payable(address(owners[i])).sendValue((onePerc * 30));\n        }\n\n        // to reflection\n        totalReflection += (onePerc * 34);\n\n        // to com\n        totalCom += (onePerc * 5);\n\n        // to final auction\n        totalAuction += onePerc;\n\n        return true;\n\n    }\n\n    /// @notice mint a new PIXS NFT from ETH\n    /// @dev consumes pixels from `totalPixels`\n    /// @param _pixelsAmount is the amount of pixels sender wants to purchase\n    /// @param _coords is an array of coordinates indicating where the pixels will be positioned on the map at https://pixsale.io\n    /// @param _image is the url pointing to an image chosen by sender / owner\n    /// @param _link is the url where users will be redirected when clicking on the to be consumed pixels\n    /// @param _titledDescription is the text data associated with the PIXS token. it is formated this way :\n    ///     title,(comma)description\n    ///     ex. My Old Cars Project, collection cars dealer in Bruxelles, Belgium\n    /// @param _owner address of the new created NFT holder/owner\n    function _mintTo(\n        uint _pixelsAmount, \n        uint[] memory _coords, \n        string memory _image, \n        string memory _link, \n        string memory _titledDescription, \n        address _owner\n    ) internal validAddress(_owner) returns (uint _pixsId) {\n        // check that there is enought available pixels\n        // ISSUE HERE : ununsed giveway pixels will be locked after reflection release\n        \n\n        // check that _coords respects the number of requested pixels\n        consistentCoords(_pixelsAmount, _coords);\n        \n        // check that space for `_coords` is available\n        mapConflict(_coords);\n\n        // check than sender has transferred enough value\n        uint heldPixelsValue = pixelsBalance[_owner] * pixelPrice;\n\n        uint purchaseEthPrice = pixelPrice * _pixelsAmount;\n\n        uint priceToPay = (\n            (heldPixelsValue >= purchaseEthPrice)\n            ? 0\n            : purchaseEthPrice - heldPixelsValue\n        );\n\n        require(\n            (\n                priceToPay > 0\n                ? (\n                    (priceToPay / pixelPrice) <= availablePixels()\n                )\n                : availablePixels() >= 25\n            ),\n            'Pixels sold out'\n        );\n        \n        require(msg.value >= priceToPay, 'transferred eth value is too low to receive request amount of pixels');\n       \n        uint giveawayPixelsCost = (\n            ((purchaseEthPrice - priceToPay) > 0)   // has pixels\n            ? (\n                // how many giveway pixels _owner will consume \n                (purchaseEthPrice - priceToPay) / pixelPrice\n            )\n            : 0\n        );\n\n        if (giveawayPixelsCost > 0) {\n            // consume pixels\n            pixelsBalance[_owner] -= giveawayPixelsCost;\n        }\n\n        PIXS memory _pixs = PIXS(_owner, _pixelsAmount, _coords, _image, _link, _titledDescription);\n\n        if (spreadEthValue(priceToPay)) {\n\n            uint tokenId = nextId();\n\n            _mint(_owner, tokenId);\n\n            // add to PIXS\n            pixs.push(_pixs);\n\n            // increment token ids\n            lastTokenId++;\n\n            // optionally refund \n            uint refund = msg.value - priceToPay;\n\n            if (refund > 0) {\n                payable(_msgSender()).transfer(refund);\n                emit Refunded(_msgSender(), refund);\n            }\n            \n            // release reflection\n            if (allPixelsSold()) {\n                releaseReflection();\n            }\n\n            // return the new created token id\n            return(tokenId);\n        }\n    }\n\n    /// @notice mint PIXS Pixsale NFT token to sender\n    /// @dev see `_mintTo`\n    function mint(\n        uint _pixelsAmount, \n        uint[] memory _coords, \n        string memory _image, \n        string memory _link, \n        string memory _titledDescription\n    ) public payable returns (uint pixsId) { \n        return _mintTo(_pixelsAmount, _coords, _image, _link, _titledDescription, _msgSender());\n    }\n\n    /// @notice mint PIXS Pixsale NFT token to a specific `owner` address\n    /// @notice if any refund occurs, value goes back to sender (msg.sender) \n    /// @dev see `_mintTo`\n    function mintTo(\n        uint _pixelsAmount, \n        uint[] memory _coords, \n        string memory _image, \n        string memory _link, \n        string memory _titledDescription, \n        address _owner\n    ) public payable returns (uint pixsIdTo) { \n        return _mintTo(_pixelsAmount, _coords, _image, _link, _titledDescription, _owner);\n    }\n\n    /// @dev Get the ether balance of the contract itself\n    function thisBalance() public view returns(uint balance) {\n        balance = payable(address(this)).balance;\n    }\n\n    /// @dev Get the total amount of pixels used by all PIXS tokens of an holder\n    function pixelsOf(address _holder) public view returns (uint ownerPixels) {\n        uint tPixs;\n\n        for (uint i = 0; i < pixs.length; i++) {\n\n            if (address(pixs[i].owner) == address(_holder)) {\n                tPixs += pixs[i].pixels;\n            }\n        }\n\n        ownerPixels = tPixs;\n    }\n\n    /// @dev Know weither or not holders can withdraw their part on total reflection \n    /// and owners can spend the allocation for the final artwork auction sale organization\n    /// @dev Remaining space on `The Map` must be low enough not to be able to mint a new PIXS\n    /// or project must have been abandoned by both owners\n    function reflectionReleased() public view returns(bool released) {\n        released = (\n            allPixelsSold()\n            || (reflectionReleaseTimestamp > 0)\n        );\n    }\n\n    /// @notice Returns weither or not all pixels have been sold\n    /// @dev minimum PIXS surface in pixels is 25\n    function allPixelsSold() public view returns(bool noMorePixels) {\n        noMorePixels = availablePixels() < 25;\n    }\n\n    /// @dev Get the reflection ether amount that an address is or will be able to withdraw \n    /// once 99.9997% of the pixels supply have been consumed\n    function reflectionBalanceOf(address _holder) public view returns(uint rAmount) {\n        return computeReflection(_holder);\n    }\n\n    /// @dev Returns the total prorata on total reflection for all PIXS\n    function pixsProratas() internal view returns(uint totalProratas) {\n        uint tPixs = pixs.length;\n        uint _totalProratas;\n\n        for (uint i = 0; i < tPixs; i++) {\n            uint totalHoldersAfter = tPixs - i;\n            uint prorata = (pixs[i].pixels * pixelPrice) * totalHoldersAfter;\n\n            _totalProratas += prorata;\n        }\n\n        return _totalProratas;\n    }\n\n    /// @dev Simulate reflection calculation from pixels amount and tokenId (aka `position`)\n    function simulateReflection(uint pixels, uint position) public view returns(uint pixelsReflection) {\n        uint tPixs = pixs.length;\n        uint multip = 1e18;\n        uint totalHoldersAfter = tPixs - position;\n        uint inflatedProrata = pixels * pixelPrice * totalHoldersAfter * multip;\n        uint inflatedCoef = inflatedProrata / pixsProratas();\n        \n        return( (inflatedCoef * totalReflection) / multip );\n    }\n\n    /// @dev Compute reflection of a single token\n    function tokenReflection(uint _tokenId) public view returns(uint tReflection) {\n        if (reflectionWithdrawn[_tokenId]) \n            return 0;\n        else {\n            return simulateReflection(pixs[_tokenId-1].pixels, _tokenId-1);\n        }\n    }\n\n\n    /// @dev Computes the reflection amount of a PIXS holder according to Pixsale reflection policy\n    /// @notice Token with already withdrawn reflection are excluded from addition\n    function computeReflection(address _holder) internal view returns(uint holderTotalReflectionBalance) {\n\n        uint tPixs = pixs.length;\n        uint multip = 1e18; \n        uint holderTotalRef = 0;\n\n        uint totalProratas = pixsProratas();\n\n        for (uint i = 0; i < tPixs; i++) {\n            uint tokenId = i+1;\n            \n            if ((address(pixs[i].owner) == address(_holder)) && !reflectionWithdrawn[tokenId]) {\n                uint totalHoldersAfter = tPixs - i;\n                uint inflatedProrata = pixs[i].pixels * pixelPrice * totalHoldersAfter * multip;\n                uint inflatedCoef = inflatedProrata / totalProratas;\n                \n                holderTotalRef += ( (inflatedCoef * totalReflection) / multip );\n\n            }\n        }\n\n        return holderTotalRef;\n            \n    }\n\n    /// @dev Computes the reflection tokens and \n    function setReflectionWithrawnForTokensOf(address _holder) internal returns(uint balCheck, uint pixelsCheck) {\n        uint hBalanceCheck = 0;\n        uint hPixelsCheck = 0;\n\n        for (uint i = 0; i < pixs.length; i++) {\n            uint tokenId = i+1;\n\n            if ((address(pixs[i].owner) == address(_holder)) && !reflectionWithdrawn[tokenId]) {\n               \n                reflectionWithdrawn[tokenId] = true;\n                hBalanceCheck += 1;\n                hPixelsCheck += pixs[i].pixels;\n            }\n\n        }\n\n        return(hBalanceCheck, hPixelsCheck);\n        \n    }\n    \n   \n    /// @dev Allow holders to withdraw their part of the reflection after all pixels have been consumed\n    function holdersReflectionWithdraw() public reflectionIsReleased nonReentrant {\n\n        address sender = _msgSender();\n        uint reflectionPart = computeReflection(sender);\n\n        uint pixelsOfSender = pixelsOf(sender);\n        uint balanceOfSender = balanceOf(sender);\n\n        require(reflectionPart > 0, 'denied : no reflection allowance');\n\n        (uint balCheck, uint pixelsCheck) = setReflectionWithrawnForTokensOf(sender);\n\n        require(\n            (\n                (pixelsCheck >= 5) \n                && (pixelsCheck <= pixelsOfSender)\n            ), \n            'cant withdraw more than held pixels'\n        );\n        require(\n            (\n                (balCheck >= 1)\n                && (balCheck <= balanceOfSender)\n            ),\n            'PIXS tokens must be owned to withdraw reflection'\n        );\n\n        payable(address(sender)).sendValue(reflectionPart);\n\n    }\n\n    \n    /// @dev Avoid locked BNB after reflection in the case of holders that did not withdraw within one year after the release of the reflection\n    function ownersWithdrawOneYearAfterRelease() public onlyOwner reflectionIsReleased {\n        uint oneYear = 31536000;\n        if (block.timestamp >= (reflectionReleaseTimestamp + oneYear)) {\n\n            uint ownerPart = thisBalance() / 2;\n\n            // totalOwnersWithdrawn += 50 * 2\n            for (uint i = 0; i < 2; i++) {\n                payable(address(owners[i])).sendValue(ownerPart);\n            }\n        }\n    }\n\n    function releaseReflection() internal {\n        reflectionReleaseTimestamp = block.timestamp;\n        emit ReflectionIsReleased();\n    }\n\n    /// @dev Allow owners to abandon the project and release reflection \n    /// one year after Pixsale start time\n    /// This feature avoid locking funds within the smart-contract\n    /// @notice Pixels sale and PIXS minting will be definitely finished\n    /// @notice Reflection will be released for all PIXS holders\n    function signProjectAbandonAndReflectionRelease() public onlyOwner {\n        uint oneYear = 31536000;\n        require(block.timestamp >= (birthTime + oneYear), 'abandon is possible after one year of contract existence from deployment time');\n        \n        address sender = _msgSender();\n        address otherOwner = (\n            address(sender) == address(owners[0])\n            ? owners[1]\n            : owners[0]\n        );\n\n        // other owner has signed the agreement : release\n        if (abandonOwnersSignatures[otherOwner]) {\n\n            releaseReflection();\n        } \n        // sign the agreement, wait other signature\n        else {\n            abandonOwnersSignatures[sender] = true;\n        }\n    }\n\n\n    /// @notice Unsign pre-signed agreement to abandon Pixsale project by an owner\n    function unsignProjectAbandonAndReflectionRelease() public onlyOwner{\n        abandonOwnersSignatures[_msgSender()] = false;\n    }\n\n\n    /* PIXS INTEGRATED MARKET PUBLIC BUY */\n\n    /// @dev Internal transfer for existing PIXS tokens\n    function internalTransfer(address tOwner, uint tokenId, address receiver) \n    validAddress(receiver) internal returns(bool transferred) {\n                \n        if (address(pixs[tokenId-1].owner) == address(tOwner)) {\n            pixs[tokenId-1].owner = receiver;\n        }\n    \n        _transfer(tOwner, receiver, tokenId);\n\n        return true;\n        \n    }\n\n\n    /// @dev Allow users to buy PIXS tokens if on sale\n    function buy(uint _tokenId) public payable nonReentrant {\n        address buyer = _msgSender();\n        address seller = ownerOf(_tokenId);\n\n        require(seller != buyer, 'cant buy to self');\n\n        uint tokenPrice = _getTokenPrice(_tokenId, seller, buyer);\n\n        require(\n            tokenPrice > 0, \n            'PIXS must be on sale'\n        );\n\n        require(\n            msg.value >= tokenPrice \n        );\n\n        payable(address(seller)).sendValue(tokenPrice);\n        \n        // transfer and clear old owner approvals\n        internalTransfer(seller, _tokenId, buyer);\n\n        // remove from public sale\n        salePrices[_tokenId] = 0;\n\n    }\n\n    /// @dev Public PIXS transfer method\n    function transfer(uint tokenId, address receiver) public returns(bool transferred) {\n        \n        address tOwner = onlyOwnerOf(tokenId);\n\n        return internalTransfer(tOwner, tokenId, receiver);\n\n    }\n\n    function sameString(string memory a, string memory b) internal pure returns(bool sameStr) {\n        sameStr = (\n            keccak256(abi.encodePacked(a)) \n            == keccak256(abi.encodePacked(b))\n        );\n    }\n\n    /// @dev Edit owned token metadatas titledDescription, image and link\n    /// @notice pass empty strings (\"\") as arguments to keep existing value\n    function editPixsMetadatas(uint tokenId, string memory tDes, string memory image, string memory link) public {\n        onlyOwnerOf(tokenId);\n        \n        string memory emptyString = \"\";\n\n        uint pixsIndex = tokenId-1;\n\n        if (!sameString(tDes, emptyString)) {\n            pixs[pixsIndex].titledDescription = tDes;\n        }\n        if (!sameString(image, emptyString)) {\n            pixs[pixsIndex].image = image;\n        }\n        if (!sameString(link, emptyString)) {\n            pixs[pixsIndex].link = link;\n        }\n\n    }\n\n  \n\n\n\n\n \n\n}\n\n",
  "sourcePath": "/Users/proapps/Documents/Mat/Apps/Pixsale/Pixsale-ERC721/contracts/Pixsale.sol",
  "compiler": {
    "name": "solc",
    "version": "0.8.4+commit.c7e474f2.Emscripten.clang"
  },
  "schemaVersion": "3.4.1",
  "updatedAt": "2021-06-24T22:13:18.751Z",
  "networkType": "ethereum",
  "devdoc": {
    "author": "Mathieu L",
    "details": "Established on JUNE 23rd, 2021    Deployed with solc version 0.8.4Contact us at go@pixsale.io                                  ",
    "kind": "dev",
    "methods": {
      "allPixelsSold()": {
        "details": "minimum PIXS surface in pixels is 25"
      },
      "approve(address,uint256)": {
        "details": "See {IERC721-approve}."
      },
      "availableGivewayPixels()": {
        "details": "Returns the total amount of pixels that owners have gaveaway"
      },
      "balanceOf(address)": {
        "details": "See {IERC721-balanceOf}."
      },
      "baseTokenURI()": {
        "details": "Retrieve all NFTs base token uri "
      },
      "buy(uint256)": {
        "details": "Allow users to buy PIXS tokens if on sale"
      },
      "constructor": {
        "details": "Pixsale construction",
        "params": {
          "_owners": ": array of 2 addresses for shared ownership"
        }
      },
      "editPixsMetadatas(uint256,string,string,string)": {
        "details": "Edit owned token metadatas titledDescription, image and link"
      },
      "getApproved(uint256)": {
        "details": "See {IERC721-getApproved}."
      },
      "getPixs(uint256)": {
        "details": "Get one PIXS token from its id"
      },
      "getRelinquishmentToken(address)": {
        "details": "Retrieve the ownership transfer key preset by a current owner to a new owner preTransferOwnership method must be called prior to calling this method"
      },
      "holdersReflectionWithdraw()": {
        "details": "Allow holders to withdraw their part of the reflection after all pixels have been consumed"
      },
      "isOwner(address)": {
        "details": "check if an address is one of the owners"
      },
      "makeOffer(uint256,uint256)": {
        "details": "Allow users to propose a price for the purchase of a token that is or not for sale",
        "params": {
          "_amount": "amount in BNB that sender proposes to buy the token",
          "_tokenId": "Token targeted by sender"
        }
      },
      "mint(uint256,uint256[],string,string,string)": {
        "details": "see `_mintTo`"
      },
      "mintTo(uint256,uint256[],string,string,string,address)": {
        "details": "see `_mintTo`"
      },
      "name()": {
        "details": "See {IERC721Metadata-name}."
      },
      "ownerOf(uint256)": {
        "details": "See {IERC721-ownerOf}."
      },
      "ownersWithdrawOneYearAfterRelease()": {
        "details": "Avoid locked BNB after reflection in the case of holders that did not withdraw within one year after the release of the reflection"
      },
      "pixelsOf(address)": {
        "details": "Get the total amount of pixels used by all PIXS tokens of an holder"
      },
      "preTransferOwnership(address)": {
        "details": "Allows any current owner to relinquish its part of control over the contract",
        "params": {
          "_newOwner": "address of the futur new owner"
        },
        "returns": {
          "_relinquishmentToken": "bytes32 ownership transfer key for msg.sender => _newOwner"
        }
      },
      "privateSellTo(uint256,uint256,address)": {
        "details": "Allows holders to sell their PIXS at chosen price to a specific address"
      },
      "reflectionBalanceOf(address)": {
        "details": "Get the reflection ether amount that an address is or will be able to withdraw  once 99.9997% of the pixels supply have been consumed"
      },
      "reflectionReleased()": {
        "details": "Know weither or not holders can withdraw their part on total reflection  and owners can spend the allocation for the final artwork auction sale organizationRemaining space on `The Map` must be low enough not to be able to mint a new PIXS or project must have been abandoned by both owners"
      },
      "removeFromSale(uint256,address)": {
        "details": "Remove a token from public sale or remove a private buyer from approved private buyers",
        "params": {
          "_optBuyer": "*optional* if a valid buyer address is provided,  the buyer will be removed from allowedBuyers",
          "_tokenId": "token Id to remove from sale OR to remove `_optBuyer` from sale"
        }
      },
      "safeTransferFrom(address,address,uint256)": {
        "details": "See {IERC721-safeTransferFrom}."
      },
      "safeTransferFrom(address,address,uint256,bytes)": {
        "details": "See {IERC721-safeTransferFrom}."
      },
      "sell(uint256,uint256)": {
        "details": "Allows holders to sell their PIXS at chosen price to anyone"
      },
      "setApprovalForAll(address,bool)": {
        "details": "See {IERC721-setApprovalForAll}."
      },
      "setBaseTokenURI(string)": {
        "details": "Set the base token uri for all NFTs"
      },
      "signProjectAbandonAndReflectionRelease()": {
        "details": "Allow owners to abandon the project and release reflection  one year after Pixsale start time This feature avoid locking funds within the smart-contract"
      },
      "simulateReflection(uint256,uint256)": {
        "details": "Simulate reflection calculation from pixels amount and tokenId (aka `position`)"
      },
      "soldPixels()": {
        "details": "Get the total number of PIXS token that have been sold / consumed"
      },
      "supportsInterface(bytes4)": {
        "details": "See {IERC165-supportsInterface}."
      },
      "symbol()": {
        "details": "See {IERC721Metadata-symbol}."
      },
      "thisBalance()": {
        "details": "Get the ether balance of the contract itself"
      },
      "tokenReflection(uint256)": {
        "details": "Compute reflection of a single token"
      },
      "tokenURI(uint256)": {
        "details": "Retrieve the uri of a specific token ",
        "params": {
          "_tokenId": "the id of the token to retrieve the uri of"
        },
        "returns": {
          "_0": "computed uri string pointing to a specific _tokenId"
        }
      },
      "totalSupply()": {
        "details": "Get the total supply of PIXS NFT tokens"
      },
      "transfer(uint256,address)": {
        "details": "Public PIXS transfer method"
      },
      "transferFrom(address,address,uint256)": {
        "details": "See {IERC721-transferFrom}."
      },
      "transferOwnership(bytes32,address)": {
        "details": "Allows any current owner to definitively and safely relinquish its part of control over the contract to a new address"
      },
      "transferPixels(uint256,address)": {
        "details": "Pixels holders can transfer pixels"
      }
    },
    "stateVariables": {
      "abandonOwnersSignatures": {
        "details": "Settable from one year after contract deployment"
      },
      "minimumPixelsAmount": {
        "details": "PIXS tokens minimum pixels amount must be greater or equal 5pxvalue is immutable and can not be changed"
      },
      "minimumPixelsLength": {
        "details": "PIXS tokens widths and heights must be greater or equal 5pxvalue is immutable and can not be changed"
      },
      "reflectionWithdrawn": {
        "details": "tokenId => boolean"
      },
      "totalCom": {
        "details": "TODO : Allow com wallet to withdraw in totalCom"
      }
    },
    "title": "Pixsale",
    "version": 1
  },
  "userdoc": {
    "kind": "user",
    "methods": {
      "allPixelsSold()": {
        "notice": "Returns weither or not all pixels have been sold"
      },
      "auctionWithdraw()": {
        "notice": "Allow owners to withdraw the allocation of 1% dedicated to final artwork auctionfunds are handled by owners in order to be able to pay the chosen art gallery with fiat"
      },
      "birthTime()": {
        "notice": "Date of birth of the smart-contract"
      },
      "comPartnerWithdraw(uint256)": {
        "notice": "Allow marketing/com partner to withdraw its allocation of 5%"
      },
      "comWallet()": {
        "notice": "Communication / Marketing partner wallet"
      },
      "editPixsMetadatas(uint256,string,string,string)": {
        "notice": "pass empty strings (\"\") as arguments to keep existing value"
      },
      "isApprovedForAll(address,address)": {
        "notice": "Override isApprovedForAll to whitelist user's OpenSea proxy accounts to enable gas-less listings."
      },
      "minimumPixelsAmount()": {
        "notice": "Minimum pixel amount to purchase"
      },
      "minimumPixelsLength()": {
        "notice": "Minimum pixel length"
      },
      "mint(uint256,uint256[],string,string,string)": {
        "notice": "mint PIXS Pixsale NFT token to sender"
      },
      "mintTo(uint256,uint256[],string,string,string,address)": {
        "notice": "mint PIXS Pixsale NFT token to a specific `owner` addressif any refund occurs, value goes back to sender (msg.sender) "
      },
      "pixelPrice()": {
        "notice": "BNB price 0.0015 BNB / pixel"
      },
      "pixelsBalance(address)": {
        "notice": "Total number of pixels held from a giveaway"
      },
      "pixs(uint256)": {
        "notice": "all PIXS tokens"
      },
      "preTransferOwnership(address)": {
        "notice": "the calling contract owner must call this method to get the `relinquishmentToken`  prior calling `renounceOwnership` method and definitively loose his ownership"
      },
      "privateSalePrices(uint256,address,address)": {
        "notice": "token Id => owner => buyer => price"
      },
      "reflectionReleaseTimestamp()": {
        "notice": "Reflection release date"
      },
      "reflectionWithdrawn(uint256)": {
        "notice": "Track reflection withdraws"
      },
      "salePrices(uint256)": {
        "notice": "token Id => sale price"
      },
      "signProjectAbandonAndReflectionRelease()": {
        "notice": "Pixels sale and PIXS minting will be definitely finishedReflection will be released for all PIXS holders"
      },
      "teamPixelsSupply()": {
        "notice": "Total amount of pixels reserved to team members"
      },
      "totalAuction()": {
        "notice": "Total received value dedicated to final auction of the artwork"
      },
      "totalAuctionWithdrawn()": {
        "notice": "Total that has been withdrawn from auction part"
      },
      "totalCom()": {
        "notice": "Total received value dedicated to communication / marketing "
      },
      "totalComWithdrawn()": {
        "notice": "Total that has been withdrawn by marketing partner"
      },
      "totalPixels()": {
        "notice": "Total supply of available pixels"
      },
      "totalPixelsGaveway()": {
        "notice": "Total amount of pixels owners have gaveaway"
      },
      "totalReflection()": {
        "notice": "Total Reflection to distribute among all holders prorata to the ratio totalPixels / balance"
      },
      "transferOwnership(bytes32,address)": {
        "notice": "IRREVERSIBLE ACTION"
      },
      "unsignProjectAbandonAndReflectionRelease()": {
        "notice": "Unsign pre-signed agreement to abandon Pixsale project by an owner"
      }
    },
    "version": 1
  }
}