{
  "contractName": "SharedOwnership",
  "abi": [
    {
      "inputs": [
        {
          "internalType": "address[]",
          "name": "_owners",
          "type": "address[]"
        }
      ],
      "stateMutability": "nonpayable",
      "type": "constructor"
    },
    {
      "anonymous": false,
      "inputs": [
        {
          "indexed": true,
          "internalType": "address",
          "name": "previousOwner",
          "type": "address"
        }
      ],
      "name": "OwnershipRenounced",
      "type": "event"
    },
    {
      "anonymous": false,
      "inputs": [
        {
          "indexed": true,
          "internalType": "address",
          "name": "previousOwner",
          "type": "address"
        },
        {
          "indexed": true,
          "internalType": "address",
          "name": "newOwner",
          "type": "address"
        }
      ],
      "name": "OwnershipTransferred",
      "type": "event"
    },
    {
      "inputs": [
        {
          "internalType": "address",
          "name": "addr",
          "type": "address"
        }
      ],
      "name": "isOwner",
      "outputs": [
        {
          "internalType": "bool",
          "name": "isOwnerAddr",
          "type": "bool"
        }
      ],
      "stateMutability": "view",
      "type": "function"
    },
    {
      "inputs": [
        {
          "internalType": "address",
          "name": "_newOwner",
          "type": "address"
        }
      ],
      "name": "preTransferOwnership",
      "outputs": [
        {
          "internalType": "bytes32",
          "name": "_relinquishmentToken",
          "type": "bytes32"
        }
      ],
      "stateMutability": "nonpayable",
      "type": "function"
    },
    {
      "inputs": [
        {
          "internalType": "address",
          "name": "_newOwner",
          "type": "address"
        }
      ],
      "name": "getRelinquishmentToken",
      "outputs": [
        {
          "internalType": "bytes32",
          "name": "_rToken",
          "type": "bytes32"
        }
      ],
      "stateMutability": "view",
      "type": "function"
    },
    {
      "inputs": [
        {
          "internalType": "bytes32",
          "name": "_relinquishmentToken",
          "type": "bytes32"
        },
        {
          "internalType": "address",
          "name": "_newOwner",
          "type": "address"
        }
      ],
      "name": "transferOwnership",
      "outputs": [],
      "stateMutability": "nonpayable",
      "type": "function"
    }
  ],
  "bytecode": "0x608060405234801561001057600080fd5b50604051610a29380380610a2983398101604081905261002f916100df565b8051610042906000906020840190610049565b50506101bb565b82805482825590600052602060002090810192821561009e579160200282015b8281111561009e57825182546001600160a01b0319166001600160a01b03909116178255602090920191600190910190610069565b506100aa9291506100ae565b5090565b5b808211156100aa57600081556001016100af565b80516001600160a01b03811681146100da57600080fd5b919050565b600060208083850312156100f1578182fd5b82516001600160401b0380821115610107578384fd5b818501915085601f83011261011a578384fd5b81518181111561012c5761012c6101a5565b8060051b604051601f19603f83011681018181108582111715610151576101516101a5565b604052828152858101935084860182860187018a101561016f578788fd5b8795505b8386101561019857610184816100c3565b855260019590950194938601938601610173565b5098975050505050505050565b634e487b7160e01b600052604160045260246000fd5b61085f806101ca6000396000f3fe608060405234801561001057600080fd5b506004361061004c5760003560e01c80632f54bf6e1461005157806330b0b5e914610079578063c4fa6e211461009a578063ef5d6bbb146100ad575b600080fd5b61006461005f366004610756565b6100c2565b60405190151581526020015b60405180910390f35b61008c610087366004610756565b610133565b604051908152602001610070565b61008c6100a8366004610756565b6101e7565b6100c06100bb366004610777565b610267565b005b6000805b60005481101561012d57826001600160a01b0316600082815481106100fb57634e487b7160e01b600052603260045260246000fd5b6000918252602090912001546001600160a01b0316141561011b57600191505b80610125816107f8565b9150506100c6565b50919050565b600061014061005f6103d0565b6101655760405162461bcd60e51b815260040161015c906107a2565b60405180910390fd5b600061016f6103d0565b9050600042826040516020016101a192919091825260601b6bffffffffffffffffffffffff1916602082015260340190565b60408051601f1981840301815291815281516020928301206001600160a01b03948516600090815260018452828120979095168552959091529091208390555090919050565b60006101f461005f6103d0565b6102105760405162461bcd60e51b815260040161015c906107a2565b6001600061021c6103d0565b6001600160a01b03166001600160a01b031681526020019081526020016000206000836001600160a01b03166001600160a01b03168152602001908152602001600020549050919050565b61027261005f6103d0565b61028e5760405162461bcd60e51b815260040161015c906107a2565b60006102986103d0565b6001600160a01b0380821660009081526001602090815260408083209387168352929052205490915080158015906102cf57508381145b6103675760405162461bcd60e51b815260206004820152605760248201527f64656e696564203a20612072656c696e71756973686d656e7420746f6b656e2060448201527f6d757374206265207072652d7365742063616c6c696e6720746865207072655460648201527f72616e736665724f776e657273686970206d6574686f64000000000000000000608482015260a40161015c565b6103708261042d565b610379836106a1565b6001600160a01b03808316600081815260016020908152604080832094881680845294909152808220829055517f8be0079c531659141344cd1fd0a4f28419497f9722a3daafe3b4186f6b6457e09190a350505050565b60003330141561042757600080368080601f0160208091040260200160405190810160405280939291908181526020018383808284376000920191909152505050503601516001600160a01b0316915061042a9050565b50335b90565b806001600160a01b0381166104765760405162461bcd60e51b815260206004820152600f60248201526e696e76616c6964206164647265737360881b604482015260640161015c565b61047f826100c2565b6104cb5760405162461bcd60e51b815260206004820152601760248201527f61646472657373206973206e6f7420616e206f776e6572000000000000000000604482015260640161015c565b600080546104db906001906107e1565b905060005b60005481101561064a57836001600160a01b03166000828154811061051557634e487b7160e01b600052603260045260246000fd5b6000918252602090912001546001600160a01b0316141561063857600054811061053f5750505050565b805b600054610550906001906107e1565b8110156105f55760006105648260016107c9565b8154811061058257634e487b7160e01b600052603260045260246000fd5b600091825260208220015481546001600160a01b039091169190839081106105ba57634e487b7160e01b600052603260045260246000fd5b600091825260209091200180546001600160a01b0319166001600160a01b0392909216919091179055806105ed816107f8565b915050610541565b50600080548061061557634e487b7160e01b600052603160045260246000fd5b600082815260209020810160001990810180546001600160a01b03191690550190555b80610642816107f8565b9150506104e0565b50600054811461069c5760405162461bcd60e51b815260206004820152601860248201527f6f776e65722063616e206e6f742062652072656d6f7665640000000000000000604482015260640161015c565b505050565b806001600160a01b0381166106ea5760405162461bcd60e51b815260206004820152600f60248201526e696e76616c6964206164647265737360881b604482015260640161015c565b50600080546001810182559080527f290decd9548b62a8d60345a988386fc84ba6bc95484008f6362f93160ef3e5630180546001600160a01b0319166001600160a01b0392909216919091179055565b80356001600160a01b038116811461075157600080fd5b919050565b600060208284031215610767578081fd5b6107708261073a565b9392505050565b60008060408385031215610789578081fd5b823591506107996020840161073a565b90509250929050565b6020808252600d908201526c1858d8d95cdcc819195b9a5959609a1b604082015260600190565b600082198211156107dc576107dc610813565b500190565b6000828210156107f3576107f3610813565b500390565b600060001982141561080c5761080c610813565b5060010190565b634e487b7160e01b600052601160045260246000fdfea2646970667358221220b9ab44aa3f341daf37cc18ec996e16836ec55f82ec5eacff48481ff361c4864564736f6c63430008040033",
  "immutableReferences": {},
  "source": "pragma solidity ^0.8.0;\n\n// import \"@openzeppelin/contracts/utils/Context.sol\";\nimport \"./ContextMixin.sol\";\n\n\n/// @title Shared Ownership\n/// @author Mathieu Lecoq\n/// @notice Allows multiple addresses to share ownership of the contract\n/// owners are able to transfer their ownership and renounce to it\ncontract SharedOwnership is ContextMixin {\n\n    /// @dev Storage of MADE token owners\n    address[] internal owners;\n\n    /// @dev Storage ownership transfers, current_owner => future_owner => relinquishment_token \n    mapping(address => mapping(address => bytes32)) internal relinquishmentTokens;\n\n    event OwnershipRenounced(address indexed previousOwner);\n    event OwnershipTransferred(\n        address indexed previousOwner,\n        address indexed newOwner\n    );\n\n    constructor(address[] memory _owners) {\n        owners = _owners;\n    }\n\n    /// @dev forbidden zero address check\n    modifier validAddress(address addr) {\n        require(addr != address(0), 'invalid address');\n        _;\n    }\n\n    /// @dev owner right check\n    modifier onlyOwner() {\n        require(isOwner(msgSender()), 'access denied');\n        _;\n    }\n\n    /// @dev check if an address is one of the owners\n    function isOwner(address addr) public view returns(bool isOwnerAddr) {\n        for (uint i = 0; i < owners.length; i++) {\n            if (address(owners[i]) == address(addr)) \n            isOwnerAddr = true;\n        }\n    }\n\n    /// @dev internally add a new owner to `owners`\n    function addOwner(address _owner) internal validAddress(_owner) {\n        owners.push(_owner);\n    }\n\n    /// @dev internally remove an owner from `owners`\n    function removeOwner(address _owner) internal validAddress(_owner) {\n        require(isOwner(_owner), 'address is not an owner');\n\n        uint afterLength = (owners.length - 1);\n\n        for (uint ownerIndex = 0; ownerIndex < owners.length; ownerIndex++) {\n            if (address(owners[ownerIndex]) == address(_owner)) {\n                if (ownerIndex >= owners.length) return;\n\n                for (uint i = ownerIndex; i < owners.length-1; i++){\n                    owners[i] = owners[i+1];\n                }\n\n                owners.pop();\n            }\n        }\n\n        require(owners.length == afterLength, 'owner can not be removed');\n\n    }\n\n\n    /// @dev Allows any current owner to relinquish its part of control over the contract\n    /// @notice the calling contract owner must call this method to get the `relinquishmentToken` \n    /// prior calling `renounceOwnership` method and definitively loose his ownership\n    /// @param _newOwner address of the futur new owner\n    /// @return _relinquishmentToken bytes32 ownership transfer key for msg.sender => _newOwner\n    function preTransferOwnership(address _newOwner) public onlyOwner returns(bytes32 _relinquishmentToken) {\n        address stillOwner = msgSender();\n        uint salt = uint(keccak256(abi.encodePacked(block.timestamp, stillOwner)));\n        bytes32 _rToken = bytes32(salt);\n        relinquishmentTokens[stillOwner][_newOwner] = _rToken;\n        _relinquishmentToken = _rToken;\n    }\n\n    /// @dev Retrieve the ownership transfer key preset by a current owner to a new owner\n    /// preTransferOwnership method must be called prior to calling this method\n    function getRelinquishmentToken(address _newOwner) public onlyOwner view returns (bytes32 _rToken) {\n        _rToken = relinquishmentTokens[msgSender()][_newOwner];\n    }\n\n    /// IRREVERSIBLE ACTION\n    /// @dev Allows any current owner to definitively and safely relinquish its part of control over the contract to a new address\n    function transferOwnership(bytes32 _relinquishmentToken, address _newOwner) public onlyOwner {\n        address previousOwner = msgSender();\n        bytes32 rToken = relinquishmentTokens[previousOwner][_newOwner];\n        \n        // make sure provided _relinquishmentToken matchs sender storage for _newOwner\n        require(\n            ((rToken != bytes32(0)) && (rToken == _relinquishmentToken)), \n            'denied : a relinquishment token must be pre-set calling the preTransferOwnership method'\n        );\n\n        // transfer contract ownership\n        removeOwner(previousOwner);\n        addOwner(_newOwner);\n\n        // remove relinquishment token from storage\n        relinquishmentTokens[previousOwner][_newOwner] = bytes32(0);\n\n        emit OwnershipTransferred(previousOwner, _newOwner);\n\n    }\n\n\n    \n    \n}",
  "sourcePath": "/Users/proapps/Documents/Mat/Apps/Pixsale/Pixsale-ERC721/contracts/SharedOwnership.sol",
  "compiler": {
    "name": "solc",
    "version": "0.8.4+commit.c7e474f2.Emscripten.clang"
  },
  "schemaVersion": "3.4.1",
  "updatedAt": "2021-06-24T21:56:43.333Z",
  "devdoc": {
    "author": "Mathieu Lecoq",
    "kind": "dev",
    "methods": {
      "getRelinquishmentToken(address)": {
        "details": "Retrieve the ownership transfer key preset by a current owner to a new owner preTransferOwnership method must be called prior to calling this method"
      },
      "isOwner(address)": {
        "details": "check if an address is one of the owners"
      },
      "preTransferOwnership(address)": {
        "details": "Allows any current owner to relinquish its part of control over the contract",
        "params": {
          "_newOwner": "address of the futur new owner"
        },
        "returns": {
          "_relinquishmentToken": "bytes32 ownership transfer key for msg.sender => _newOwner"
        }
      },
      "transferOwnership(bytes32,address)": {
        "details": "Allows any current owner to definitively and safely relinquish its part of control over the contract to a new address"
      }
    },
    "stateVariables": {
      "owners": {
        "details": "Storage of MADE token owners"
      },
      "relinquishmentTokens": {
        "details": "Storage ownership transfers, current_owner => future_owner => relinquishment_token "
      }
    },
    "title": "Shared Ownership",
    "version": 1
  },
  "userdoc": {
    "kind": "user",
    "methods": {
      "preTransferOwnership(address)": {
        "notice": "the calling contract owner must call this method to get the `relinquishmentToken`  prior calling `renounceOwnership` method and definitively loose his ownership"
      },
      "transferOwnership(bytes32,address)": {
        "notice": "IRREVERSIBLE ACTION"
      }
    },
    "notice": "Allows multiple addresses to share ownership of the contract owners are able to transfer their ownership and renounce to it",
    "version": 1
  }
}